{"contracts/Voting.sol":{"Voting":{"abi":[{"inputs":[{"internalType":"string[]","name":"_candidateNames","type":"string[]"},{"internalType":"string[]","name":"_candidateParty","type":"string[]"},{"internalType":"uint256","name":"_durationInMinutes","type":"uint256"}],"stateMutability":"nonpayable","type":"constructor"},{"inputs":[{"internalType":"string","name":"_name","type":"string"},{"internalType":"string","name":"_party","type":"string"}],"name":"addCandidate","outputs":[],"stateMutability":"nonpayable","type":"function"},{"inputs":[{"internalType":"uint256","name":"","type":"uint256"}],"name":"candidates","outputs":[{"internalType":"string","name":"name","type":"string"},{"internalType":"string","name":"party","type":"string"},{"internalType":"uint256","name":"voteCount","type":"uint256"}],"stateMutability":"view","type":"function"},{"inputs":[],"name":"getAllVotesOfCandiates","outputs":[{"components":[{"internalType":"string","name":"name","type":"string"},{"internalType":"string","name":"party","type":"string"},{"internalType":"uint256","name":"voteCount","type":"uint256"}],"internalType":"struct Voting.Candidate[]","name":"","type":"tuple[]"}],"stateMutability":"view","type":"function"},{"inputs":[],"name":"getRemainingTime","outputs":[{"internalType":"uint256","name":"","type":"uint256"}],"stateMutability":"view","type":"function"},{"inputs":[],"name":"getVotingStatus","outputs":[{"internalType":"bool","name":"","type":"bool"}],"stateMutability":"view","type":"function"},{"inputs":[{"internalType":"uint256","name":"_candidateIndex","type":"uint256"}],"name":"vote","outputs":[],"stateMutability":"nonpayable","type":"function"},{"inputs":[{"internalType":"address","name":"","type":"address"}],"name":"voters","outputs":[{"internalType":"bool","name":"","type":"bool"}],"stateMutability":"view","type":"function"},{"inputs":[],"name":"votingEnd","outputs":[{"internalType":"uint256","name":"","type":"uint256"}],"stateMutability":"view","type":"function"},{"inputs":[],"name":"votingStart","outputs":[{"internalType":"uint256","name":"","type":"uint256"}],"stateMutability":"view","type":"function"}],"evm":{"bytecode":{"linkReferences":{},"object":"60806040523480156200001157600080fd5b5060405162001aa238038062001aa2833981810160405281019062000037919062000455565b60005b8351811015620001175760006040518060600160405280868481518110620000675762000066620004ef565b5b602002602001015181526020018584815181106200008a5762000089620004ef565b5b60200260200101518152602001600081525090806001815401808255809150506001900390600052602060002090600302016000909190919091506000820151816000019081620000dc91906200075f565b506020820151816001019081620000f491906200075f565b5060408201518160020155505080806200010e9062000875565b9150506200003a565b5033600160006101000a81548173ffffffffffffffffffffffffffffffffffffffff021916908373ffffffffffffffffffffffffffffffffffffffff16021790555042600381905550603c816200016f9190620008c2565b426200017c91906200090d565b60048190555050505062000948565b6000604051905090565b600080fd5b600080fd5b600080fd5b6000601f19601f8301169050919050565b7f4e487b7100000000000000000000000000000000000000000000000000000000600052604160045260246000fd5b620001ef82620001a4565b810181811067ffffffffffffffff82111715620002115762000210620001b5565b5b80604052505050565b6000620002266200018b565b9050620002348282620001e4565b919050565b600067ffffffffffffffff821115620002575762000256620001b5565b5b602082029050602081019050919050565b600080fd5b600080fd5b600067ffffffffffffffff82111562000290576200028f620001b5565b5b6200029b82620001a4565b9050602081019050919050565b60005b83811015620002c8578082015181840152602081019050620002ab565b60008484015250505050565b6000620002eb620002e58462000272565b6200021a565b9050828152602081018484840111156200030a57620003096200026d565b5b62000317848285620002a8565b509392505050565b600082601f8301126200033757620003366200019f565b5b815162000349848260208601620002d4565b91505092915050565b600062000369620003638462000239565b6200021a565b905080838252602082019050602084028301858111156200038f576200038e62000268565b5b835b81811015620003dd57805167ffffffffffffffff811115620003b857620003b76200019f565b5b808601620003c789826200031f565b8552602085019450505060208101905062000391565b5050509392505050565b600082601f830112620003ff57620003fe6200019f565b5b81516200041184826020860162000352565b91505092915050565b6000819050919050565b6200042f816200041a565b81146200043b57600080fd5b50565b6000815190506200044f8162000424565b92915050565b60008060006060848603121562000471576200047062000195565b5b600084015167ffffffffffffffff8111156200049257620004916200019a565b5b620004a086828701620003e7565b935050602084015167ffffffffffffffff811115620004c457620004c36200019a565b5b620004d286828701620003e7565b9250506040620004e5868287016200043e565b9150509250925092565b7f4e487b7100000000000000000000000000000000000000000000000000000000600052603260045260246000fd5b600081519050919050565b7f4e487b7100000000000000000000000000000000000000000000000000000000600052602260045260246000fd5b600060028204905060018216806200057157607f821691505b60208210810362000587576200058662000529565b5b50919050565b60008190508160005260206000209050919050565b60006020601f8301049050919050565b600082821b905092915050565b600060088302620005f17fffffffffffffffffffffffffffffffffffffffffffffffffffffffffffffffff82620005b2565b620005fd8683620005b2565b95508019841693508086168417925050509392505050565b6000819050919050565b6000620006406200063a62000634846200041a565b62000615565b6200041a565b9050919050565b6000819050919050565b6200065c836200061f565b620006746200066b8262000647565b848454620005bf565b825550505050565b600090565b6200068b6200067c565b6200069881848462000651565b505050565b5b81811015620006c057620006b460008262000681565b6001810190506200069e565b5050565b601f8211156200070f57620006d9816200058d565b620006e484620005a2565b81016020851015620006f4578190505b6200070c6200070385620005a2565b8301826200069d565b50505b505050565b600082821c905092915050565b6000620007346000198460080262000714565b1980831691505092915050565b60006200074f838362000721565b9150826002028217905092915050565b6200076a826200051e565b67ffffffffffffffff811115620007865762000785620001b5565b5b62000792825462000558565b6200079f828285620006c4565b600060209050601f831160018114620007d75760008415620007c2578287015190505b620007ce858262000741565b8655506200083e565b601f198416620007e7866200058d565b60005b828110156200081157848901518255600182019150602085019450602081019050620007ea565b868310156200083157848901516200082d601f89168262000721565b8355505b6001600288020188555050505b505050505050565b7f4e487b7100000000000000000000000000000000000000000000000000000000600052601160045260246000fd5b600062000882826200041a565b91507fffffffffffffffffffffffffffffffffffffffffffffffffffffffffffffffff8203620008b757620008b662000846565b5b600182019050919050565b6000620008cf826200041a565b9150620008dc836200041a565b9250828202620008ec816200041a565b9150828204841483151762000906576200090562000846565b5b5092915050565b60006200091a826200041a565b915062000927836200041a565b925082820190508082111562000942576200094162000846565b5b92915050565b61114a80620009586000396000f3fe608060405234801561001057600080fd5b50600436106100935760003560e01c80634d6bda5f116100665780634d6bda5f14610120578063581c281c1461013e57806385a386351461015c578063a3ec138d1461017a578063efb98bcf146101aa57610093565b80630121b93f14610098578063101158af146100b457806326541b56146100d25780633477ee2e146100ee575b600080fd5b6100b260048036038101906100ad9190610756565b6101c8565b005b6100bc6102a5565b6040516100c99190610792565b60405180910390f35b6100ec60048036038101906100e791906108f3565b6102ab565b005b61010860048036038101906101039190610756565b610388565b604051610117939291906109ea565b60405180910390f35b6101286104d2565b6040516101359190610ba1565b60405180910390f35b61014661065f565b6040516101539190610bde565b60405180910390f35b610164610679565b6040516101719190610792565b60405180910390f35b610194600480360381019061018f9190610c57565b61067f565b6040516101a19190610bde565b60405180910390f35b6101b261069f565b6040516101bf9190610792565b60405180910390f35b600080549050811061020f576040517f08c379a000000000000000000000000000000000000000000000000000000000815260040161020690610cd0565b60405180910390fd5b6000818154811061022357610222610cf0565b5b9060005260206000209060030201600201600081548092919061024590610d4e565b91905055506001600260003373ffffffffffffffffffffffffffffffffffffffff1673ffffffffffffffffffffffffffffffffffffffff16815260200190815260200160002060006101000a81548160ff02191690831515021790555050565b60035481565b600160009054906101000a900473ffffffffffffffffffffffffffffffffffffffff1673ffffffffffffffffffffffffffffffffffffffff163373ffffffffffffffffffffffffffffffffffffffff161461030557600080fd5b600060405180606001604052808481526020018381526020016000815250908060018154018082558091505060019003906000526020600020906003020160009091909190915060008201518160000190816103619190610fa2565b5060208201518160010190816103779190610fa2565b506040820151816002015550505050565b6000818154811061039857600080fd5b90600052602060002090600302016000915090508060000180546103bb90610dc5565b80601f01602080910402602001604051908101604052809291908181526020018280546103e790610dc5565b80156104345780601f1061040957610100808354040283529160200191610434565b820191906000526020600020905b81548152906001019060200180831161041757829003601f168201915b50505050509080600101805461044990610dc5565b80601f016020809104026020016040519081016040528092919081815260200182805461047590610dc5565b80156104c25780601f10610497576101008083540402835291602001916104c2565b820191906000526020600020905b8154815290600101906020018083116104a557829003601f168201915b5050505050908060020154905083565b60606000805480602002602001604051908101604052809291908181526020016000905b82821015610656578382906000526020600020906003020160405180606001604052908160008201805461052990610dc5565b80601f016020809104026020016040519081016040528092919081815260200182805461055590610dc5565b80156105a25780601f10610577576101008083540402835291602001916105a2565b820191906000526020600020905b81548152906001019060200180831161058557829003601f168201915b505050505081526020016001820180546105bb90610dc5565b80601f01602080910402602001604051908101604052809291908181526020018280546105e790610dc5565b80156106345780601f1061060957610100808354040283529160200191610634565b820191906000526020600020905b81548152906001019060200180831161061757829003601f168201915b50505050508152602001600282015481525050815260200190600101906104f6565b50505050905090565b60006003544210158015610674575060045442105b905090565b60045481565b60026020528060005260406000206000915054906101000a900460ff1681565b60006003544210156106e6576040517f08c379a00000000000000000000000000000000000000000000000000000000081526004016106dd906110c0565b60405180910390fd5b60045442106106f85760009050610709565b4260045461070691906110e0565b90505b90565b6000604051905090565b600080fd5b600080fd5b6000819050919050565b61073381610720565b811461073e57600080fd5b50565b6000813590506107508161072a565b92915050565b60006020828403121561076c5761076b610716565b5b600061077a84828501610741565b91505092915050565b61078c81610720565b82525050565b60006020820190506107a76000830184610783565b92915050565b600080fd5b600080fd5b6000601f19601f8301169050919050565b7f4e487b7100000000000000000000000000000000000000000000000000000000600052604160045260246000fd5b610800826107b7565b810181811067ffffffffffffffff8211171561081f5761081e6107c8565b5b80604052505050565b600061083261070c565b905061083e82826107f7565b919050565b600067ffffffffffffffff82111561085e5761085d6107c8565b5b610867826107b7565b9050602081019050919050565b82818337600083830152505050565b600061089661089184610843565b610828565b9050828152602081018484840111156108b2576108b16107b2565b5b6108bd848285610874565b509392505050565b600082601f8301126108da576108d96107ad565b5b81356108ea848260208601610883565b91505092915050565b6000806040838503121561090a57610909610716565b5b600083013567ffffffffffffffff8111156109285761092761071b565b5b610934858286016108c5565b925050602083013567ffffffffffffffff8111156109555761095461071b565b5b610961858286016108c5565b9150509250929050565b600081519050919050565b600082825260208201905092915050565b60005b838110156109a557808201518184015260208101905061098a565b60008484015250505050565b60006109bc8261096b565b6109c68185610976565b93506109d6818560208601610987565b6109df816107b7565b840191505092915050565b60006060820190508181036000830152610a0481866109b1565b90508181036020830152610a1881856109b1565b9050610a276040830184610783565b949350505050565b600081519050919050565b600082825260208201905092915050565b6000819050602082019050919050565b600082825260208201905092915050565b6000610a778261096b565b610a818185610a5b565b9350610a91818560208601610987565b610a9a816107b7565b840191505092915050565b610aae81610720565b82525050565b60006060830160008301518482036000860152610ad18282610a6c565b91505060208301518482036020860152610aeb8282610a6c565b9150506040830151610b006040860182610aa5565b508091505092915050565b6000610b178383610ab4565b905092915050565b6000602082019050919050565b6000610b3782610a2f565b610b418185610a3a565b935083602082028501610b5385610a4b565b8060005b85811015610b8f5784840389528151610b708582610b0b565b9450610b7b83610b1f565b925060208a01995050600181019050610b57565b50829750879550505050505092915050565b60006020820190508181036000830152610bbb8184610b2c565b905092915050565b60008115159050919050565b610bd881610bc3565b82525050565b6000602082019050610bf36000830184610bcf565b92915050565b600073ffffffffffffffffffffffffffffffffffffffff82169050919050565b6000610c2482610bf9565b9050919050565b610c3481610c19565b8114610c3f57600080fd5b50565b600081359050610c5181610c2b565b92915050565b600060208284031215610c6d57610c6c610716565b5b6000610c7b84828501610c42565b91505092915050565b7f496e76616c69642063616e64696461746520696e6465782e0000000000000000600082015250565b6000610cba601883610976565b9150610cc582610c84565b602082019050919050565b60006020820190508181036000830152610ce981610cad565b9050919050565b7f4e487b7100000000000000000000000000000000000000000000000000000000600052603260045260246000fd5b7f4e487b7100000000000000000000000000000000000000000000000000000000600052601160045260246000fd5b6000610d5982610720565b91507fffffffffffffffffffffffffffffffffffffffffffffffffffffffffffffffff8203610d8b57610d8a610d1f565b5b600182019050919050565b7f4e487b7100000000000000000000000000000000000000000000000000000000600052602260045260246000fd5b60006002820490506001821680610ddd57607f821691505b602082108103610df057610def610d96565b5b50919050565b60008190508160005260206000209050919050565b60006020601f8301049050919050565b600082821b905092915050565b600060088302610e587fffffffffffffffffffffffffffffffffffffffffffffffffffffffffffffffff82610e1b565b610e628683610e1b565b95508019841693508086168417925050509392505050565b6000819050919050565b6000610e9f610e9a610e9584610720565b610e7a565b610720565b9050919050565b6000819050919050565b610eb983610e84565b610ecd610ec582610ea6565b848454610e28565b825550505050565b600090565b610ee2610ed5565b610eed818484610eb0565b505050565b5b81811015610f1157610f06600082610eda565b600181019050610ef3565b5050565b601f821115610f5657610f2781610df6565b610f3084610e0b565b81016020851015610f3f578190505b610f53610f4b85610e0b565b830182610ef2565b50505b505050565b600082821c905092915050565b6000610f7960001984600802610f5b565b1980831691505092915050565b6000610f928383610f68565b9150826002028217905092915050565b610fab8261096b565b67ffffffffffffffff811115610fc457610fc36107c8565b5b610fce8254610dc5565b610fd9828285610f15565b600060209050601f83116001811461100c5760008415610ffa578287015190505b6110048582610f86565b86555061106c565b601f19841661101a86610df6565b60005b828110156110425784890151825560018201915060208501945060208101905061101d565b8683101561105f578489015161105b601f891682610f68565b8355505b6001600288020188555050505b505050505050565b7f566f74696e6720686173206e6f742073746172746564207965742e0000000000600082015250565b60006110aa601b83610976565b91506110b582611074565b602082019050919050565b600060208201905081810360008301526110d98161109d565b9050919050565b60006110eb82610720565b91506110f683610720565b925082820390508181111561110e5761110d610d1f565b5b9291505056fea2646970667358221220d95e036108c45796ffc4a319c79fe40bc3471d299fa6a903071a72ef2145c06e64736f6c63430008110033","opcodes":"PUSH1 0x80 PUSH1 0x40 MSTORE CALLVALUE DUP1 ISZERO PUSH3 0x11 JUMPI PUSH1 0x0 DUP1 REVERT JUMPDEST POP PUSH1 0x40 MLOAD PUSH3 0x1AA2 CODESIZE SUB DUP1 PUSH3 0x1AA2 DUP4 CODECOPY DUP2 DUP2 ADD PUSH1 0x40 MSTORE DUP2 ADD SWAP1 PUSH3 0x37 SWAP2 SWAP1 PUSH3 0x455 JUMP JUMPDEST PUSH1 0x0 JUMPDEST DUP4 MLOAD DUP2 LT ISZERO PUSH3 0x117 JUMPI PUSH1 0x0 PUSH1 0x40 MLOAD DUP1 PUSH1 0x60 ADD PUSH1 0x40 MSTORE DUP1 DUP7 DUP5 DUP2 MLOAD DUP2 LT PUSH3 0x67 JUMPI PUSH3 0x66 PUSH3 0x4EF JUMP JUMPDEST JUMPDEST PUSH1 0x20 MUL PUSH1 0x20 ADD ADD MLOAD DUP2 MSTORE PUSH1 0x20 ADD DUP6 DUP5 DUP2 MLOAD DUP2 LT PUSH3 0x8A JUMPI PUSH3 0x89 PUSH3 0x4EF JUMP JUMPDEST JUMPDEST PUSH1 0x20 MUL PUSH1 0x20 ADD ADD MLOAD DUP2 MSTORE PUSH1 0x20 ADD PUSH1 0x0 DUP2 MSTORE POP SWAP1 DUP1 PUSH1 0x1 DUP2 SLOAD ADD DUP1 DUP3 SSTORE DUP1 SWAP2 POP POP PUSH1 0x1 SWAP1 SUB SWAP1 PUSH1 0x0 MSTORE PUSH1 0x20 PUSH1 0x0 KECCAK256 SWAP1 PUSH1 0x3 MUL ADD PUSH1 0x0 SWAP1 SWAP2 SWAP1 SWAP2 SWAP1 SWAP2 POP PUSH1 0x0 DUP3 ADD MLOAD DUP2 PUSH1 0x0 ADD SWAP1 DUP2 PUSH3 0xDC SWAP2 SWAP1 PUSH3 0x75F JUMP JUMPDEST POP PUSH1 0x20 DUP3 ADD MLOAD DUP2 PUSH1 0x1 ADD SWAP1 DUP2 PUSH3 0xF4 SWAP2 SWAP1 PUSH3 0x75F JUMP JUMPDEST POP PUSH1 0x40 DUP3 ADD MLOAD DUP2 PUSH1 0x2 ADD SSTORE POP POP DUP1 DUP1 PUSH3 0x10E SWAP1 PUSH3 0x875 JUMP JUMPDEST SWAP2 POP POP PUSH3 0x3A JUMP JUMPDEST POP CALLER PUSH1 0x1 PUSH1 0x0 PUSH2 0x100 EXP DUP2 SLOAD DUP2 PUSH20 0xFFFFFFFFFFFFFFFFFFFFFFFFFFFFFFFFFFFFFFFF MUL NOT AND SWAP1 DUP4 PUSH20 0xFFFFFFFFFFFFFFFFFFFFFFFFFFFFFFFFFFFFFFFF AND MUL OR SWAP1 SSTORE POP TIMESTAMP PUSH1 0x3 DUP2 SWAP1 SSTORE POP PUSH1 0x3C DUP2 PUSH3 0x16F SWAP2 SWAP1 PUSH3 0x8C2 JUMP JUMPDEST TIMESTAMP PUSH3 0x17C SWAP2 SWAP1 PUSH3 0x90D JUMP JUMPDEST PUSH1 0x4 DUP2 SWAP1 SSTORE POP POP POP POP PUSH3 0x948 JUMP JUMPDEST PUSH1 0x0 PUSH1 0x40 MLOAD SWAP1 POP SWAP1 JUMP JUMPDEST PUSH1 0x0 DUP1 REVERT JUMPDEST PUSH1 0x0 DUP1 REVERT JUMPDEST PUSH1 0x0 DUP1 REVERT JUMPDEST PUSH1 0x0 PUSH1 0x1F NOT PUSH1 0x1F DUP4 ADD AND SWAP1 POP SWAP2 SWAP1 POP JUMP JUMPDEST PUSH32 0x4E487B7100000000000000000000000000000000000000000000000000000000 PUSH1 0x0 MSTORE PUSH1 0x41 PUSH1 0x4 MSTORE PUSH1 0x24 PUSH1 0x0 REVERT JUMPDEST PUSH3 0x1EF DUP3 PUSH3 0x1A4 JUMP JUMPDEST DUP2 ADD DUP2 DUP2 LT PUSH8 0xFFFFFFFFFFFFFFFF DUP3 GT OR ISZERO PUSH3 0x211 JUMPI PUSH3 0x210 PUSH3 0x1B5 JUMP JUMPDEST JUMPDEST DUP1 PUSH1 0x40 MSTORE POP POP POP JUMP JUMPDEST PUSH1 0x0 PUSH3 0x226 PUSH3 0x18B JUMP JUMPDEST SWAP1 POP PUSH3 0x234 DUP3 DUP3 PUSH3 0x1E4 JUMP JUMPDEST SWAP2 SWAP1 POP JUMP JUMPDEST PUSH1 0x0 PUSH8 0xFFFFFFFFFFFFFFFF DUP3 GT ISZERO PUSH3 0x257 JUMPI PUSH3 0x256 PUSH3 0x1B5 JUMP JUMPDEST JUMPDEST PUSH1 0x20 DUP3 MUL SWAP1 POP PUSH1 0x20 DUP2 ADD SWAP1 POP SWAP2 SWAP1 POP JUMP JUMPDEST PUSH1 0x0 DUP1 REVERT JUMPDEST PUSH1 0x0 DUP1 REVERT JUMPDEST PUSH1 0x0 PUSH8 0xFFFFFFFFFFFFFFFF DUP3 GT ISZERO PUSH3 0x290 JUMPI PUSH3 0x28F PUSH3 0x1B5 JUMP JUMPDEST JUMPDEST PUSH3 0x29B DUP3 PUSH3 0x1A4 JUMP JUMPDEST SWAP1 POP PUSH1 0x20 DUP2 ADD SWAP1 POP SWAP2 SWAP1 POP JUMP JUMPDEST PUSH1 0x0 JUMPDEST DUP4 DUP2 LT ISZERO PUSH3 0x2C8 JUMPI DUP1 DUP3 ADD MLOAD DUP2 DUP5 ADD MSTORE PUSH1 0x20 DUP2 ADD SWAP1 POP PUSH3 0x2AB JUMP JUMPDEST PUSH1 0x0 DUP5 DUP5 ADD MSTORE POP POP POP POP JUMP JUMPDEST PUSH1 0x0 PUSH3 0x2EB PUSH3 0x2E5 DUP5 PUSH3 0x272 JUMP JUMPDEST PUSH3 0x21A JUMP JUMPDEST SWAP1 POP DUP3 DUP2 MSTORE PUSH1 0x20 DUP2 ADD DUP5 DUP5 DUP5 ADD GT ISZERO PUSH3 0x30A JUMPI PUSH3 0x309 PUSH3 0x26D JUMP JUMPDEST JUMPDEST PUSH3 0x317 DUP5 DUP3 DUP6 PUSH3 0x2A8 JUMP JUMPDEST POP SWAP4 SWAP3 POP POP POP JUMP JUMPDEST PUSH1 0x0 DUP3 PUSH1 0x1F DUP4 ADD SLT PUSH3 0x337 JUMPI PUSH3 0x336 PUSH3 0x19F JUMP JUMPDEST JUMPDEST DUP2 MLOAD PUSH3 0x349 DUP5 DUP3 PUSH1 0x20 DUP7 ADD PUSH3 0x2D4 JUMP JUMPDEST SWAP2 POP POP SWAP3 SWAP2 POP POP JUMP JUMPDEST PUSH1 0x0 PUSH3 0x369 PUSH3 0x363 DUP5 PUSH3 0x239 JUMP JUMPDEST PUSH3 0x21A JUMP JUMPDEST SWAP1 POP DUP1 DUP4 DUP3 MSTORE PUSH1 0x20 DUP3 ADD SWAP1 POP PUSH1 0x20 DUP5 MUL DUP4 ADD DUP6 DUP2 GT ISZERO PUSH3 0x38F JUMPI PUSH3 0x38E PUSH3 0x268 JUMP JUMPDEST JUMPDEST DUP4 JUMPDEST DUP2 DUP2 LT ISZERO PUSH3 0x3DD JUMPI DUP1 MLOAD PUSH8 0xFFFFFFFFFFFFFFFF DUP2 GT ISZERO PUSH3 0x3B8 JUMPI PUSH3 0x3B7 PUSH3 0x19F JUMP JUMPDEST JUMPDEST DUP1 DUP7 ADD PUSH3 0x3C7 DUP10 DUP3 PUSH3 0x31F JUMP JUMPDEST DUP6 MSTORE PUSH1 0x20 DUP6 ADD SWAP5 POP POP POP PUSH1 0x20 DUP2 ADD SWAP1 POP PUSH3 0x391 JUMP JUMPDEST POP POP POP SWAP4 SWAP3 POP POP POP JUMP JUMPDEST PUSH1 0x0 DUP3 PUSH1 0x1F DUP4 ADD SLT PUSH3 0x3FF JUMPI PUSH3 0x3FE PUSH3 0x19F JUMP JUMPDEST JUMPDEST DUP2 MLOAD PUSH3 0x411 DUP5 DUP3 PUSH1 0x20 DUP7 ADD PUSH3 0x352 JUMP JUMPDEST SWAP2 POP POP SWAP3 SWAP2 POP POP JUMP JUMPDEST PUSH1 0x0 DUP2 SWAP1 POP SWAP2 SWAP1 POP JUMP JUMPDEST PUSH3 0x42F DUP2 PUSH3 0x41A JUMP JUMPDEST DUP2 EQ PUSH3 0x43B JUMPI PUSH1 0x0 DUP1 REVERT JUMPDEST POP JUMP JUMPDEST PUSH1 0x0 DUP2 MLOAD SWAP1 POP PUSH3 0x44F DUP2 PUSH3 0x424 JUMP JUMPDEST SWAP3 SWAP2 POP POP JUMP JUMPDEST PUSH1 0x0 DUP1 PUSH1 0x0 PUSH1 0x60 DUP5 DUP7 SUB SLT ISZERO PUSH3 0x471 JUMPI PUSH3 0x470 PUSH3 0x195 JUMP JUMPDEST JUMPDEST PUSH1 0x0 DUP5 ADD MLOAD PUSH8 0xFFFFFFFFFFFFFFFF DUP2 GT ISZERO PUSH3 0x492 JUMPI PUSH3 0x491 PUSH3 0x19A JUMP JUMPDEST JUMPDEST PUSH3 0x4A0 DUP7 DUP3 DUP8 ADD PUSH3 0x3E7 JUMP JUMPDEST SWAP4 POP POP PUSH1 0x20 DUP5 ADD MLOAD PUSH8 0xFFFFFFFFFFFFFFFF DUP2 GT ISZERO PUSH3 0x4C4 JUMPI PUSH3 0x4C3 PUSH3 0x19A JUMP JUMPDEST JUMPDEST PUSH3 0x4D2 DUP7 DUP3 DUP8 ADD PUSH3 0x3E7 JUMP JUMPDEST SWAP3 POP POP PUSH1 0x40 PUSH3 0x4E5 DUP7 DUP3 DUP8 ADD PUSH3 0x43E JUMP JUMPDEST SWAP2 POP POP SWAP3 POP SWAP3 POP SWAP3 JUMP JUMPDEST PUSH32 0x4E487B7100000000000000000000000000000000000000000000000000000000 PUSH1 0x0 MSTORE PUSH1 0x32 PUSH1 0x4 MSTORE PUSH1 0x24 PUSH1 0x0 REVERT JUMPDEST PUSH1 0x0 DUP2 MLOAD SWAP1 POP SWAP2 SWAP1 POP JUMP JUMPDEST PUSH32 0x4E487B7100000000000000000000000000000000000000000000000000000000 PUSH1 0x0 MSTORE PUSH1 0x22 PUSH1 0x4 MSTORE PUSH1 0x24 PUSH1 0x0 REVERT JUMPDEST PUSH1 0x0 PUSH1 0x2 DUP3 DIV SWAP1 POP PUSH1 0x1 DUP3 AND DUP1 PUSH3 0x571 JUMPI PUSH1 0x7F DUP3 AND SWAP2 POP JUMPDEST PUSH1 0x20 DUP3 LT DUP2 SUB PUSH3 0x587 JUMPI PUSH3 0x586 PUSH3 0x529 JUMP JUMPDEST JUMPDEST POP SWAP2 SWAP1 POP JUMP JUMPDEST PUSH1 0x0 DUP2 SWAP1 POP DUP2 PUSH1 0x0 MSTORE PUSH1 0x20 PUSH1 0x0 KECCAK256 SWAP1 POP SWAP2 SWAP1 POP JUMP JUMPDEST PUSH1 0x0 PUSH1 0x20 PUSH1 0x1F DUP4 ADD DIV SWAP1 POP SWAP2 SWAP1 POP JUMP JUMPDEST PUSH1 0x0 DUP3 DUP3 SHL SWAP1 POP SWAP3 SWAP2 POP POP JUMP JUMPDEST PUSH1 0x0 PUSH1 0x8 DUP4 MUL PUSH3 0x5F1 PUSH32 0xFFFFFFFFFFFFFFFFFFFFFFFFFFFFFFFFFFFFFFFFFFFFFFFFFFFFFFFFFFFFFFFF DUP3 PUSH3 0x5B2 JUMP JUMPDEST PUSH3 0x5FD DUP7 DUP4 PUSH3 0x5B2 JUMP JUMPDEST SWAP6 POP DUP1 NOT DUP5 AND SWAP4 POP DUP1 DUP7 AND DUP5 OR SWAP3 POP POP POP SWAP4 SWAP3 POP POP POP JUMP JUMPDEST PUSH1 0x0 DUP2 SWAP1 POP SWAP2 SWAP1 POP JUMP JUMPDEST PUSH1 0x0 PUSH3 0x640 PUSH3 0x63A PUSH3 0x634 DUP5 PUSH3 0x41A JUMP JUMPDEST PUSH3 0x615 JUMP JUMPDEST PUSH3 0x41A JUMP JUMPDEST SWAP1 POP SWAP2 SWAP1 POP JUMP JUMPDEST PUSH1 0x0 DUP2 SWAP1 POP SWAP2 SWAP1 POP JUMP JUMPDEST PUSH3 0x65C DUP4 PUSH3 0x61F JUMP JUMPDEST PUSH3 0x674 PUSH3 0x66B DUP3 PUSH3 0x647 JUMP JUMPDEST DUP5 DUP5 SLOAD PUSH3 0x5BF JUMP JUMPDEST DUP3 SSTORE POP POP POP POP JUMP JUMPDEST PUSH1 0x0 SWAP1 JUMP JUMPDEST PUSH3 0x68B PUSH3 0x67C JUMP JUMPDEST PUSH3 0x698 DUP2 DUP5 DUP5 PUSH3 0x651 JUMP JUMPDEST POP POP POP JUMP JUMPDEST JUMPDEST DUP2 DUP2 LT ISZERO PUSH3 0x6C0 JUMPI PUSH3 0x6B4 PUSH1 0x0 DUP3 PUSH3 0x681 JUMP JUMPDEST PUSH1 0x1 DUP2 ADD SWAP1 POP PUSH3 0x69E JUMP JUMPDEST POP POP JUMP JUMPDEST PUSH1 0x1F DUP3 GT ISZERO PUSH3 0x70F JUMPI PUSH3 0x6D9 DUP2 PUSH3 0x58D JUMP JUMPDEST PUSH3 0x6E4 DUP5 PUSH3 0x5A2 JUMP JUMPDEST DUP2 ADD PUSH1 0x20 DUP6 LT ISZERO PUSH3 0x6F4 JUMPI DUP2 SWAP1 POP JUMPDEST PUSH3 0x70C PUSH3 0x703 DUP6 PUSH3 0x5A2 JUMP JUMPDEST DUP4 ADD DUP3 PUSH3 0x69D JUMP JUMPDEST POP POP JUMPDEST POP POP POP JUMP JUMPDEST PUSH1 0x0 DUP3 DUP3 SHR SWAP1 POP SWAP3 SWAP2 POP POP JUMP JUMPDEST PUSH1 0x0 PUSH3 0x734 PUSH1 0x0 NOT DUP5 PUSH1 0x8 MUL PUSH3 0x714 JUMP JUMPDEST NOT DUP1 DUP4 AND SWAP2 POP POP SWAP3 SWAP2 POP POP JUMP JUMPDEST PUSH1 0x0 PUSH3 0x74F DUP4 DUP4 PUSH3 0x721 JUMP JUMPDEST SWAP2 POP DUP3 PUSH1 0x2 MUL DUP3 OR SWAP1 POP SWAP3 SWAP2 POP POP JUMP JUMPDEST PUSH3 0x76A DUP3 PUSH3 0x51E JUMP JUMPDEST PUSH8 0xFFFFFFFFFFFFFFFF DUP2 GT ISZERO PUSH3 0x786 JUMPI PUSH3 0x785 PUSH3 0x1B5 JUMP JUMPDEST JUMPDEST PUSH3 0x792 DUP3 SLOAD PUSH3 0x558 JUMP JUMPDEST PUSH3 0x79F DUP3 DUP3 DUP6 PUSH3 0x6C4 JUMP JUMPDEST PUSH1 0x0 PUSH1 0x20 SWAP1 POP PUSH1 0x1F DUP4 GT PUSH1 0x1 DUP2 EQ PUSH3 0x7D7 JUMPI PUSH1 0x0 DUP5 ISZERO PUSH3 0x7C2 JUMPI DUP3 DUP8 ADD MLOAD SWAP1 POP JUMPDEST PUSH3 0x7CE DUP6 DUP3 PUSH3 0x741 JUMP JUMPDEST DUP7 SSTORE POP PUSH3 0x83E JUMP JUMPDEST PUSH1 0x1F NOT DUP5 AND PUSH3 0x7E7 DUP7 PUSH3 0x58D JUMP JUMPDEST PUSH1 0x0 JUMPDEST DUP3 DUP2 LT ISZERO PUSH3 0x811 JUMPI DUP5 DUP10 ADD MLOAD DUP3 SSTORE PUSH1 0x1 DUP3 ADD SWAP2 POP PUSH1 0x20 DUP6 ADD SWAP5 POP PUSH1 0x20 DUP2 ADD SWAP1 POP PUSH3 0x7EA JUMP JUMPDEST DUP7 DUP4 LT ISZERO PUSH3 0x831 JUMPI DUP5 DUP10 ADD MLOAD PUSH3 0x82D PUSH1 0x1F DUP10 AND DUP3 PUSH3 0x721 JUMP JUMPDEST DUP4 SSTORE POP JUMPDEST PUSH1 0x1 PUSH1 0x2 DUP9 MUL ADD DUP9 SSTORE POP POP POP JUMPDEST POP POP POP POP POP POP JUMP JUMPDEST PUSH32 0x4E487B7100000000000000000000000000000000000000000000000000000000 PUSH1 0x0 MSTORE PUSH1 0x11 PUSH1 0x4 MSTORE PUSH1 0x24 PUSH1 0x0 REVERT JUMPDEST PUSH1 0x0 PUSH3 0x882 DUP3 PUSH3 0x41A JUMP JUMPDEST SWAP2 POP PUSH32 0xFFFFFFFFFFFFFFFFFFFFFFFFFFFFFFFFFFFFFFFFFFFFFFFFFFFFFFFFFFFFFFFF DUP3 SUB PUSH3 0x8B7 JUMPI PUSH3 0x8B6 PUSH3 0x846 JUMP JUMPDEST JUMPDEST PUSH1 0x1 DUP3 ADD SWAP1 POP SWAP2 SWAP1 POP JUMP JUMPDEST PUSH1 0x0 PUSH3 0x8CF DUP3 PUSH3 0x41A JUMP JUMPDEST SWAP2 POP PUSH3 0x8DC DUP4 PUSH3 0x41A JUMP JUMPDEST SWAP3 POP DUP3 DUP3 MUL PUSH3 0x8EC DUP2 PUSH3 0x41A JUMP JUMPDEST SWAP2 POP DUP3 DUP3 DIV DUP5 EQ DUP4 ISZERO OR PUSH3 0x906 JUMPI PUSH3 0x905 PUSH3 0x846 JUMP JUMPDEST JUMPDEST POP SWAP3 SWAP2 POP POP JUMP JUMPDEST PUSH1 0x0 PUSH3 0x91A DUP3 PUSH3 0x41A JUMP JUMPDEST SWAP2 POP PUSH3 0x927 DUP4 PUSH3 0x41A JUMP JUMPDEST SWAP3 POP DUP3 DUP3 ADD SWAP1 POP DUP1 DUP3 GT ISZERO PUSH3 0x942 JUMPI PUSH3 0x941 PUSH3 0x846 JUMP JUMPDEST JUMPDEST SWAP3 SWAP2 POP POP JUMP JUMPDEST PUSH2 0x114A DUP1 PUSH3 0x958 PUSH1 0x0 CODECOPY PUSH1 0x0 RETURN INVALID PUSH1 0x80 PUSH1 0x40 MSTORE CALLVALUE DUP1 ISZERO PUSH2 0x10 JUMPI PUSH1 0x0 DUP1 REVERT JUMPDEST POP PUSH1 0x4 CALLDATASIZE LT PUSH2 0x93 JUMPI PUSH1 0x0 CALLDATALOAD PUSH1 0xE0 SHR DUP1 PUSH4 0x4D6BDA5F GT PUSH2 0x66 JUMPI DUP1 PUSH4 0x4D6BDA5F EQ PUSH2 0x120 JUMPI DUP1 PUSH4 0x581C281C EQ PUSH2 0x13E JUMPI DUP1 PUSH4 0x85A38635 EQ PUSH2 0x15C JUMPI DUP1 PUSH4 0xA3EC138D EQ PUSH2 0x17A JUMPI DUP1 PUSH4 0xEFB98BCF EQ PUSH2 0x1AA JUMPI PUSH2 0x93 JUMP JUMPDEST DUP1 PUSH4 0x121B93F EQ PUSH2 0x98 JUMPI DUP1 PUSH4 0x101158AF EQ PUSH2 0xB4 JUMPI DUP1 PUSH4 0x26541B56 EQ PUSH2 0xD2 JUMPI DUP1 PUSH4 0x3477EE2E EQ PUSH2 0xEE JUMPI JUMPDEST PUSH1 0x0 DUP1 REVERT JUMPDEST PUSH2 0xB2 PUSH1 0x4 DUP1 CALLDATASIZE SUB DUP2 ADD SWAP1 PUSH2 0xAD SWAP2 SWAP1 PUSH2 0x756 JUMP JUMPDEST PUSH2 0x1C8 JUMP JUMPDEST STOP JUMPDEST PUSH2 0xBC PUSH2 0x2A5 JUMP JUMPDEST PUSH1 0x40 MLOAD PUSH2 0xC9 SWAP2 SWAP1 PUSH2 0x792 JUMP JUMPDEST PUSH1 0x40 MLOAD DUP1 SWAP2 SUB SWAP1 RETURN JUMPDEST PUSH2 0xEC PUSH1 0x4 DUP1 CALLDATASIZE SUB DUP2 ADD SWAP1 PUSH2 0xE7 SWAP2 SWAP1 PUSH2 0x8F3 JUMP JUMPDEST PUSH2 0x2AB JUMP JUMPDEST STOP JUMPDEST PUSH2 0x108 PUSH1 0x4 DUP1 CALLDATASIZE SUB DUP2 ADD SWAP1 PUSH2 0x103 SWAP2 SWAP1 PUSH2 0x756 JUMP JUMPDEST PUSH2 0x388 JUMP JUMPDEST PUSH1 0x40 MLOAD PUSH2 0x117 SWAP4 SWAP3 SWAP2 SWAP1 PUSH2 0x9EA JUMP JUMPDEST PUSH1 0x40 MLOAD DUP1 SWAP2 SUB SWAP1 RETURN JUMPDEST PUSH2 0x128 PUSH2 0x4D2 JUMP JUMPDEST PUSH1 0x40 MLOAD PUSH2 0x135 SWAP2 SWAP1 PUSH2 0xBA1 JUMP JUMPDEST PUSH1 0x40 MLOAD DUP1 SWAP2 SUB SWAP1 RETURN JUMPDEST PUSH2 0x146 PUSH2 0x65F JUMP JUMPDEST PUSH1 0x40 MLOAD PUSH2 0x153 SWAP2 SWAP1 PUSH2 0xBDE JUMP JUMPDEST PUSH1 0x40 MLOAD DUP1 SWAP2 SUB SWAP1 RETURN JUMPDEST PUSH2 0x164 PUSH2 0x679 JUMP JUMPDEST PUSH1 0x40 MLOAD PUSH2 0x171 SWAP2 SWAP1 PUSH2 0x792 JUMP JUMPDEST PUSH1 0x40 MLOAD DUP1 SWAP2 SUB SWAP1 RETURN JUMPDEST PUSH2 0x194 PUSH1 0x4 DUP1 CALLDATASIZE SUB DUP2 ADD SWAP1 PUSH2 0x18F SWAP2 SWAP1 PUSH2 0xC57 JUMP JUMPDEST PUSH2 0x67F JUMP JUMPDEST PUSH1 0x40 MLOAD PUSH2 0x1A1 SWAP2 SWAP1 PUSH2 0xBDE JUMP JUMPDEST PUSH1 0x40 MLOAD DUP1 SWAP2 SUB SWAP1 RETURN JUMPDEST PUSH2 0x1B2 PUSH2 0x69F JUMP JUMPDEST PUSH1 0x40 MLOAD PUSH2 0x1BF SWAP2 SWAP1 PUSH2 0x792 JUMP JUMPDEST PUSH1 0x40 MLOAD DUP1 SWAP2 SUB SWAP1 RETURN JUMPDEST PUSH1 0x0 DUP1 SLOAD SWAP1 POP DUP2 LT PUSH2 0x20F JUMPI PUSH1 0x40 MLOAD PUSH32 0x8C379A000000000000000000000000000000000000000000000000000000000 DUP2 MSTORE PUSH1 0x4 ADD PUSH2 0x206 SWAP1 PUSH2 0xCD0 JUMP JUMPDEST PUSH1 0x40 MLOAD DUP1 SWAP2 SUB SWAP1 REVERT JUMPDEST PUSH1 0x0 DUP2 DUP2 SLOAD DUP2 LT PUSH2 0x223 JUMPI PUSH2 0x222 PUSH2 0xCF0 JUMP JUMPDEST JUMPDEST SWAP1 PUSH1 0x0 MSTORE PUSH1 0x20 PUSH1 0x0 KECCAK256 SWAP1 PUSH1 0x3 MUL ADD PUSH1 0x2 ADD PUSH1 0x0 DUP2 SLOAD DUP1 SWAP3 SWAP2 SWAP1 PUSH2 0x245 SWAP1 PUSH2 0xD4E JUMP JUMPDEST SWAP2 SWAP1 POP SSTORE POP PUSH1 0x1 PUSH1 0x2 PUSH1 0x0 CALLER PUSH20 0xFFFFFFFFFFFFFFFFFFFFFFFFFFFFFFFFFFFFFFFF AND PUSH20 0xFFFFFFFFFFFFFFFFFFFFFFFFFFFFFFFFFFFFFFFF AND DUP2 MSTORE PUSH1 0x20 ADD SWAP1 DUP2 MSTORE PUSH1 0x20 ADD PUSH1 0x0 KECCAK256 PUSH1 0x0 PUSH2 0x100 EXP DUP2 SLOAD DUP2 PUSH1 0xFF MUL NOT AND SWAP1 DUP4 ISZERO ISZERO MUL OR SWAP1 SSTORE POP POP JUMP JUMPDEST PUSH1 0x3 SLOAD DUP2 JUMP JUMPDEST PUSH1 0x1 PUSH1 0x0 SWAP1 SLOAD SWAP1 PUSH2 0x100 EXP SWAP1 DIV PUSH20 0xFFFFFFFFFFFFFFFFFFFFFFFFFFFFFFFFFFFFFFFF AND PUSH20 0xFFFFFFFFFFFFFFFFFFFFFFFFFFFFFFFFFFFFFFFF AND CALLER PUSH20 0xFFFFFFFFFFFFFFFFFFFFFFFFFFFFFFFFFFFFFFFF AND EQ PUSH2 0x305 JUMPI PUSH1 0x0 DUP1 REVERT JUMPDEST PUSH1 0x0 PUSH1 0x40 MLOAD DUP1 PUSH1 0x60 ADD PUSH1 0x40 MSTORE DUP1 DUP5 DUP2 MSTORE PUSH1 0x20 ADD DUP4 DUP2 MSTORE PUSH1 0x20 ADD PUSH1 0x0 DUP2 MSTORE POP SWAP1 DUP1 PUSH1 0x1 DUP2 SLOAD ADD DUP1 DUP3 SSTORE DUP1 SWAP2 POP POP PUSH1 0x1 SWAP1 SUB SWAP1 PUSH1 0x0 MSTORE PUSH1 0x20 PUSH1 0x0 KECCAK256 SWAP1 PUSH1 0x3 MUL ADD PUSH1 0x0 SWAP1 SWAP2 SWAP1 SWAP2 SWAP1 SWAP2 POP PUSH1 0x0 DUP3 ADD MLOAD DUP2 PUSH1 0x0 ADD SWAP1 DUP2 PUSH2 0x361 SWAP2 SWAP1 PUSH2 0xFA2 JUMP JUMPDEST POP PUSH1 0x20 DUP3 ADD MLOAD DUP2 PUSH1 0x1 ADD SWAP1 DUP2 PUSH2 0x377 SWAP2 SWAP1 PUSH2 0xFA2 JUMP JUMPDEST POP PUSH1 0x40 DUP3 ADD MLOAD DUP2 PUSH1 0x2 ADD SSTORE POP POP POP POP JUMP JUMPDEST PUSH1 0x0 DUP2 DUP2 SLOAD DUP2 LT PUSH2 0x398 JUMPI PUSH1 0x0 DUP1 REVERT JUMPDEST SWAP1 PUSH1 0x0 MSTORE PUSH1 0x20 PUSH1 0x0 KECCAK256 SWAP1 PUSH1 0x3 MUL ADD PUSH1 0x0 SWAP2 POP SWAP1 POP DUP1 PUSH1 0x0 ADD DUP1 SLOAD PUSH2 0x3BB SWAP1 PUSH2 0xDC5 JUMP JUMPDEST DUP1 PUSH1 0x1F ADD PUSH1 0x20 DUP1 SWAP2 DIV MUL PUSH1 0x20 ADD PUSH1 0x40 MLOAD SWAP1 DUP2 ADD PUSH1 0x40 MSTORE DUP1 SWAP3 SWAP2 SWAP1 DUP2 DUP2 MSTORE PUSH1 0x20 ADD DUP3 DUP1 SLOAD PUSH2 0x3E7 SWAP1 PUSH2 0xDC5 JUMP JUMPDEST DUP1 ISZERO PUSH2 0x434 JUMPI DUP1 PUSH1 0x1F LT PUSH2 0x409 JUMPI PUSH2 0x100 DUP1 DUP4 SLOAD DIV MUL DUP4 MSTORE SWAP2 PUSH1 0x20 ADD SWAP2 PUSH2 0x434 JUMP JUMPDEST DUP3 ADD SWAP2 SWAP1 PUSH1 0x0 MSTORE PUSH1 0x20 PUSH1 0x0 KECCAK256 SWAP1 JUMPDEST DUP2 SLOAD DUP2 MSTORE SWAP1 PUSH1 0x1 ADD SWAP1 PUSH1 0x20 ADD DUP1 DUP4 GT PUSH2 0x417 JUMPI DUP3 SWAP1 SUB PUSH1 0x1F AND DUP3 ADD SWAP2 JUMPDEST POP POP POP POP POP SWAP1 DUP1 PUSH1 0x1 ADD DUP1 SLOAD PUSH2 0x449 SWAP1 PUSH2 0xDC5 JUMP JUMPDEST DUP1 PUSH1 0x1F ADD PUSH1 0x20 DUP1 SWAP2 DIV MUL PUSH1 0x20 ADD PUSH1 0x40 MLOAD SWAP1 DUP2 ADD PUSH1 0x40 MSTORE DUP1 SWAP3 SWAP2 SWAP1 DUP2 DUP2 MSTORE PUSH1 0x20 ADD DUP3 DUP1 SLOAD PUSH2 0x475 SWAP1 PUSH2 0xDC5 JUMP JUMPDEST DUP1 ISZERO PUSH2 0x4C2 JUMPI DUP1 PUSH1 0x1F LT PUSH2 0x497 JUMPI PUSH2 0x100 DUP1 DUP4 SLOAD DIV MUL DUP4 MSTORE SWAP2 PUSH1 0x20 ADD SWAP2 PUSH2 0x4C2 JUMP JUMPDEST DUP3 ADD SWAP2 SWAP1 PUSH1 0x0 MSTORE PUSH1 0x20 PUSH1 0x0 KECCAK256 SWAP1 JUMPDEST DUP2 SLOAD DUP2 MSTORE SWAP1 PUSH1 0x1 ADD SWAP1 PUSH1 0x20 ADD DUP1 DUP4 GT PUSH2 0x4A5 JUMPI DUP3 SWAP1 SUB PUSH1 0x1F AND DUP3 ADD SWAP2 JUMPDEST POP POP POP POP POP SWAP1 DUP1 PUSH1 0x2 ADD SLOAD SWAP1 POP DUP4 JUMP JUMPDEST PUSH1 0x60 PUSH1 0x0 DUP1 SLOAD DUP1 PUSH1 0x20 MUL PUSH1 0x20 ADD PUSH1 0x40 MLOAD SWAP1 DUP2 ADD PUSH1 0x40 MSTORE DUP1 SWAP3 SWAP2 SWAP1 DUP2 DUP2 MSTORE PUSH1 0x20 ADD PUSH1 0x0 SWAP1 JUMPDEST DUP3 DUP3 LT ISZERO PUSH2 0x656 JUMPI DUP4 DUP3 SWAP1 PUSH1 0x0 MSTORE PUSH1 0x20 PUSH1 0x0 KECCAK256 SWAP1 PUSH1 0x3 MUL ADD PUSH1 0x40 MLOAD DUP1 PUSH1 0x60 ADD PUSH1 0x40 MSTORE SWAP1 DUP2 PUSH1 0x0 DUP3 ADD DUP1 SLOAD PUSH2 0x529 SWAP1 PUSH2 0xDC5 JUMP JUMPDEST DUP1 PUSH1 0x1F ADD PUSH1 0x20 DUP1 SWAP2 DIV MUL PUSH1 0x20 ADD PUSH1 0x40 MLOAD SWAP1 DUP2 ADD PUSH1 0x40 MSTORE DUP1 SWAP3 SWAP2 SWAP1 DUP2 DUP2 MSTORE PUSH1 0x20 ADD DUP3 DUP1 SLOAD PUSH2 0x555 SWAP1 PUSH2 0xDC5 JUMP JUMPDEST DUP1 ISZERO PUSH2 0x5A2 JUMPI DUP1 PUSH1 0x1F LT PUSH2 0x577 JUMPI PUSH2 0x100 DUP1 DUP4 SLOAD DIV MUL DUP4 MSTORE SWAP2 PUSH1 0x20 ADD SWAP2 PUSH2 0x5A2 JUMP JUMPDEST DUP3 ADD SWAP2 SWAP1 PUSH1 0x0 MSTORE PUSH1 0x20 PUSH1 0x0 KECCAK256 SWAP1 JUMPDEST DUP2 SLOAD DUP2 MSTORE SWAP1 PUSH1 0x1 ADD SWAP1 PUSH1 0x20 ADD DUP1 DUP4 GT PUSH2 0x585 JUMPI DUP3 SWAP1 SUB PUSH1 0x1F AND DUP3 ADD SWAP2 JUMPDEST POP POP POP POP POP DUP2 MSTORE PUSH1 0x20 ADD PUSH1 0x1 DUP3 ADD DUP1 SLOAD PUSH2 0x5BB SWAP1 PUSH2 0xDC5 JUMP JUMPDEST DUP1 PUSH1 0x1F ADD PUSH1 0x20 DUP1 SWAP2 DIV MUL PUSH1 0x20 ADD PUSH1 0x40 MLOAD SWAP1 DUP2 ADD PUSH1 0x40 MSTORE DUP1 SWAP3 SWAP2 SWAP1 DUP2 DUP2 MSTORE PUSH1 0x20 ADD DUP3 DUP1 SLOAD PUSH2 0x5E7 SWAP1 PUSH2 0xDC5 JUMP JUMPDEST DUP1 ISZERO PUSH2 0x634 JUMPI DUP1 PUSH1 0x1F LT PUSH2 0x609 JUMPI PUSH2 0x100 DUP1 DUP4 SLOAD DIV MUL DUP4 MSTORE SWAP2 PUSH1 0x20 ADD SWAP2 PUSH2 0x634 JUMP JUMPDEST DUP3 ADD SWAP2 SWAP1 PUSH1 0x0 MSTORE PUSH1 0x20 PUSH1 0x0 KECCAK256 SWAP1 JUMPDEST DUP2 SLOAD DUP2 MSTORE SWAP1 PUSH1 0x1 ADD SWAP1 PUSH1 0x20 ADD DUP1 DUP4 GT PUSH2 0x617 JUMPI DUP3 SWAP1 SUB PUSH1 0x1F AND DUP3 ADD SWAP2 JUMPDEST POP POP POP POP POP DUP2 MSTORE PUSH1 0x20 ADD PUSH1 0x2 DUP3 ADD SLOAD DUP2 MSTORE POP POP DUP2 MSTORE PUSH1 0x20 ADD SWAP1 PUSH1 0x1 ADD SWAP1 PUSH2 0x4F6 JUMP JUMPDEST POP POP POP POP SWAP1 POP SWAP1 JUMP JUMPDEST PUSH1 0x0 PUSH1 0x3 SLOAD TIMESTAMP LT ISZERO DUP1 ISZERO PUSH2 0x674 JUMPI POP PUSH1 0x4 SLOAD TIMESTAMP LT JUMPDEST SWAP1 POP SWAP1 JUMP JUMPDEST PUSH1 0x4 SLOAD DUP2 JUMP JUMPDEST PUSH1 0x2 PUSH1 0x20 MSTORE DUP1 PUSH1 0x0 MSTORE PUSH1 0x40 PUSH1 0x0 KECCAK256 PUSH1 0x0 SWAP2 POP SLOAD SWAP1 PUSH2 0x100 EXP SWAP1 DIV PUSH1 0xFF AND DUP2 JUMP JUMPDEST PUSH1 0x0 PUSH1 0x3 SLOAD TIMESTAMP LT ISZERO PUSH2 0x6E6 JUMPI PUSH1 0x40 MLOAD PUSH32 0x8C379A000000000000000000000000000000000000000000000000000000000 DUP2 MSTORE PUSH1 0x4 ADD PUSH2 0x6DD SWAP1 PUSH2 0x10C0 JUMP JUMPDEST PUSH1 0x40 MLOAD DUP1 SWAP2 SUB SWAP1 REVERT JUMPDEST PUSH1 0x4 SLOAD TIMESTAMP LT PUSH2 0x6F8 JUMPI PUSH1 0x0 SWAP1 POP PUSH2 0x709 JUMP JUMPDEST TIMESTAMP PUSH1 0x4 SLOAD PUSH2 0x706 SWAP2 SWAP1 PUSH2 0x10E0 JUMP JUMPDEST SWAP1 POP JUMPDEST SWAP1 JUMP JUMPDEST PUSH1 0x0 PUSH1 0x40 MLOAD SWAP1 POP SWAP1 JUMP JUMPDEST PUSH1 0x0 DUP1 REVERT JUMPDEST PUSH1 0x0 DUP1 REVERT JUMPDEST PUSH1 0x0 DUP2 SWAP1 POP SWAP2 SWAP1 POP JUMP JUMPDEST PUSH2 0x733 DUP2 PUSH2 0x720 JUMP JUMPDEST DUP2 EQ PUSH2 0x73E JUMPI PUSH1 0x0 DUP1 REVERT JUMPDEST POP JUMP JUMPDEST PUSH1 0x0 DUP2 CALLDATALOAD SWAP1 POP PUSH2 0x750 DUP2 PUSH2 0x72A JUMP JUMPDEST SWAP3 SWAP2 POP POP JUMP JUMPDEST PUSH1 0x0 PUSH1 0x20 DUP3 DUP5 SUB SLT ISZERO PUSH2 0x76C JUMPI PUSH2 0x76B PUSH2 0x716 JUMP JUMPDEST JUMPDEST PUSH1 0x0 PUSH2 0x77A DUP5 DUP3 DUP6 ADD PUSH2 0x741 JUMP JUMPDEST SWAP2 POP POP SWAP3 SWAP2 POP POP JUMP JUMPDEST PUSH2 0x78C DUP2 PUSH2 0x720 JUMP JUMPDEST DUP3 MSTORE POP POP JUMP JUMPDEST PUSH1 0x0 PUSH1 0x20 DUP3 ADD SWAP1 POP PUSH2 0x7A7 PUSH1 0x0 DUP4 ADD DUP5 PUSH2 0x783 JUMP JUMPDEST SWAP3 SWAP2 POP POP JUMP JUMPDEST PUSH1 0x0 DUP1 REVERT JUMPDEST PUSH1 0x0 DUP1 REVERT JUMPDEST PUSH1 0x0 PUSH1 0x1F NOT PUSH1 0x1F DUP4 ADD AND SWAP1 POP SWAP2 SWAP1 POP JUMP JUMPDEST PUSH32 0x4E487B7100000000000000000000000000000000000000000000000000000000 PUSH1 0x0 MSTORE PUSH1 0x41 PUSH1 0x4 MSTORE PUSH1 0x24 PUSH1 0x0 REVERT JUMPDEST PUSH2 0x800 DUP3 PUSH2 0x7B7 JUMP JUMPDEST DUP2 ADD DUP2 DUP2 LT PUSH8 0xFFFFFFFFFFFFFFFF DUP3 GT OR ISZERO PUSH2 0x81F JUMPI PUSH2 0x81E PUSH2 0x7C8 JUMP JUMPDEST JUMPDEST DUP1 PUSH1 0x40 MSTORE POP POP POP JUMP JUMPDEST PUSH1 0x0 PUSH2 0x832 PUSH2 0x70C JUMP JUMPDEST SWAP1 POP PUSH2 0x83E DUP3 DUP3 PUSH2 0x7F7 JUMP JUMPDEST SWAP2 SWAP1 POP JUMP JUMPDEST PUSH1 0x0 PUSH8 0xFFFFFFFFFFFFFFFF DUP3 GT ISZERO PUSH2 0x85E JUMPI PUSH2 0x85D PUSH2 0x7C8 JUMP JUMPDEST JUMPDEST PUSH2 0x867 DUP3 PUSH2 0x7B7 JUMP JUMPDEST SWAP1 POP PUSH1 0x20 DUP2 ADD SWAP1 POP SWAP2 SWAP1 POP JUMP JUMPDEST DUP3 DUP2 DUP4 CALLDATACOPY PUSH1 0x0 DUP4 DUP4 ADD MSTORE POP POP POP JUMP JUMPDEST PUSH1 0x0 PUSH2 0x896 PUSH2 0x891 DUP5 PUSH2 0x843 JUMP JUMPDEST PUSH2 0x828 JUMP JUMPDEST SWAP1 POP DUP3 DUP2 MSTORE PUSH1 0x20 DUP2 ADD DUP5 DUP5 DUP5 ADD GT ISZERO PUSH2 0x8B2 JUMPI PUSH2 0x8B1 PUSH2 0x7B2 JUMP JUMPDEST JUMPDEST PUSH2 0x8BD DUP5 DUP3 DUP6 PUSH2 0x874 JUMP JUMPDEST POP SWAP4 SWAP3 POP POP POP JUMP JUMPDEST PUSH1 0x0 DUP3 PUSH1 0x1F DUP4 ADD SLT PUSH2 0x8DA JUMPI PUSH2 0x8D9 PUSH2 0x7AD JUMP JUMPDEST JUMPDEST DUP2 CALLDATALOAD PUSH2 0x8EA DUP5 DUP3 PUSH1 0x20 DUP7 ADD PUSH2 0x883 JUMP JUMPDEST SWAP2 POP POP SWAP3 SWAP2 POP POP JUMP JUMPDEST PUSH1 0x0 DUP1 PUSH1 0x40 DUP4 DUP6 SUB SLT ISZERO PUSH2 0x90A JUMPI PUSH2 0x909 PUSH2 0x716 JUMP JUMPDEST JUMPDEST PUSH1 0x0 DUP4 ADD CALLDATALOAD PUSH8 0xFFFFFFFFFFFFFFFF DUP2 GT ISZERO PUSH2 0x928 JUMPI PUSH2 0x927 PUSH2 0x71B JUMP JUMPDEST JUMPDEST PUSH2 0x934 DUP6 DUP3 DUP7 ADD PUSH2 0x8C5 JUMP JUMPDEST SWAP3 POP POP PUSH1 0x20 DUP4 ADD CALLDATALOAD PUSH8 0xFFFFFFFFFFFFFFFF DUP2 GT ISZERO PUSH2 0x955 JUMPI PUSH2 0x954 PUSH2 0x71B JUMP JUMPDEST JUMPDEST PUSH2 0x961 DUP6 DUP3 DUP7 ADD PUSH2 0x8C5 JUMP JUMPDEST SWAP2 POP POP SWAP3 POP SWAP3 SWAP1 POP JUMP JUMPDEST PUSH1 0x0 DUP2 MLOAD SWAP1 POP SWAP2 SWAP1 POP JUMP JUMPDEST PUSH1 0x0 DUP3 DUP3 MSTORE PUSH1 0x20 DUP3 ADD SWAP1 POP SWAP3 SWAP2 POP POP JUMP JUMPDEST PUSH1 0x0 JUMPDEST DUP4 DUP2 LT ISZERO PUSH2 0x9A5 JUMPI DUP1 DUP3 ADD MLOAD DUP2 DUP5 ADD MSTORE PUSH1 0x20 DUP2 ADD SWAP1 POP PUSH2 0x98A JUMP JUMPDEST PUSH1 0x0 DUP5 DUP5 ADD MSTORE POP POP POP POP JUMP JUMPDEST PUSH1 0x0 PUSH2 0x9BC DUP3 PUSH2 0x96B JUMP JUMPDEST PUSH2 0x9C6 DUP2 DUP6 PUSH2 0x976 JUMP JUMPDEST SWAP4 POP PUSH2 0x9D6 DUP2 DUP6 PUSH1 0x20 DUP7 ADD PUSH2 0x987 JUMP JUMPDEST PUSH2 0x9DF DUP2 PUSH2 0x7B7 JUMP JUMPDEST DUP5 ADD SWAP2 POP POP SWAP3 SWAP2 POP POP JUMP JUMPDEST PUSH1 0x0 PUSH1 0x60 DUP3 ADD SWAP1 POP DUP2 DUP2 SUB PUSH1 0x0 DUP4 ADD MSTORE PUSH2 0xA04 DUP2 DUP7 PUSH2 0x9B1 JUMP JUMPDEST SWAP1 POP DUP2 DUP2 SUB PUSH1 0x20 DUP4 ADD MSTORE PUSH2 0xA18 DUP2 DUP6 PUSH2 0x9B1 JUMP JUMPDEST SWAP1 POP PUSH2 0xA27 PUSH1 0x40 DUP4 ADD DUP5 PUSH2 0x783 JUMP JUMPDEST SWAP5 SWAP4 POP POP POP POP JUMP JUMPDEST PUSH1 0x0 DUP2 MLOAD SWAP1 POP SWAP2 SWAP1 POP JUMP JUMPDEST PUSH1 0x0 DUP3 DUP3 MSTORE PUSH1 0x20 DUP3 ADD SWAP1 POP SWAP3 SWAP2 POP POP JUMP JUMPDEST PUSH1 0x0 DUP2 SWAP1 POP PUSH1 0x20 DUP3 ADD SWAP1 POP SWAP2 SWAP1 POP JUMP JUMPDEST PUSH1 0x0 DUP3 DUP3 MSTORE PUSH1 0x20 DUP3 ADD SWAP1 POP SWAP3 SWAP2 POP POP JUMP JUMPDEST PUSH1 0x0 PUSH2 0xA77 DUP3 PUSH2 0x96B JUMP JUMPDEST PUSH2 0xA81 DUP2 DUP6 PUSH2 0xA5B JUMP JUMPDEST SWAP4 POP PUSH2 0xA91 DUP2 DUP6 PUSH1 0x20 DUP7 ADD PUSH2 0x987 JUMP JUMPDEST PUSH2 0xA9A DUP2 PUSH2 0x7B7 JUMP JUMPDEST DUP5 ADD SWAP2 POP POP SWAP3 SWAP2 POP POP JUMP JUMPDEST PUSH2 0xAAE DUP2 PUSH2 0x720 JUMP JUMPDEST DUP3 MSTORE POP POP JUMP JUMPDEST PUSH1 0x0 PUSH1 0x60 DUP4 ADD PUSH1 0x0 DUP4 ADD MLOAD DUP5 DUP3 SUB PUSH1 0x0 DUP7 ADD MSTORE PUSH2 0xAD1 DUP3 DUP3 PUSH2 0xA6C JUMP JUMPDEST SWAP2 POP POP PUSH1 0x20 DUP4 ADD MLOAD DUP5 DUP3 SUB PUSH1 0x20 DUP7 ADD MSTORE PUSH2 0xAEB DUP3 DUP3 PUSH2 0xA6C JUMP JUMPDEST SWAP2 POP POP PUSH1 0x40 DUP4 ADD MLOAD PUSH2 0xB00 PUSH1 0x40 DUP7 ADD DUP3 PUSH2 0xAA5 JUMP JUMPDEST POP DUP1 SWAP2 POP POP SWAP3 SWAP2 POP POP JUMP JUMPDEST PUSH1 0x0 PUSH2 0xB17 DUP4 DUP4 PUSH2 0xAB4 JUMP JUMPDEST SWAP1 POP SWAP3 SWAP2 POP POP JUMP JUMPDEST PUSH1 0x0 PUSH1 0x20 DUP3 ADD SWAP1 POP SWAP2 SWAP1 POP JUMP JUMPDEST PUSH1 0x0 PUSH2 0xB37 DUP3 PUSH2 0xA2F JUMP JUMPDEST PUSH2 0xB41 DUP2 DUP6 PUSH2 0xA3A JUMP JUMPDEST SWAP4 POP DUP4 PUSH1 0x20 DUP3 MUL DUP6 ADD PUSH2 0xB53 DUP6 PUSH2 0xA4B JUMP JUMPDEST DUP1 PUSH1 0x0 JUMPDEST DUP6 DUP2 LT ISZERO PUSH2 0xB8F JUMPI DUP5 DUP5 SUB DUP10 MSTORE DUP2 MLOAD PUSH2 0xB70 DUP6 DUP3 PUSH2 0xB0B JUMP JUMPDEST SWAP5 POP PUSH2 0xB7B DUP4 PUSH2 0xB1F JUMP JUMPDEST SWAP3 POP PUSH1 0x20 DUP11 ADD SWAP10 POP POP PUSH1 0x1 DUP2 ADD SWAP1 POP PUSH2 0xB57 JUMP JUMPDEST POP DUP3 SWAP8 POP DUP8 SWAP6 POP POP POP POP POP POP SWAP3 SWAP2 POP POP JUMP JUMPDEST PUSH1 0x0 PUSH1 0x20 DUP3 ADD SWAP1 POP DUP2 DUP2 SUB PUSH1 0x0 DUP4 ADD MSTORE PUSH2 0xBBB DUP2 DUP5 PUSH2 0xB2C JUMP JUMPDEST SWAP1 POP SWAP3 SWAP2 POP POP JUMP JUMPDEST PUSH1 0x0 DUP2 ISZERO ISZERO SWAP1 POP SWAP2 SWAP1 POP JUMP JUMPDEST PUSH2 0xBD8 DUP2 PUSH2 0xBC3 JUMP JUMPDEST DUP3 MSTORE POP POP JUMP JUMPDEST PUSH1 0x0 PUSH1 0x20 DUP3 ADD SWAP1 POP PUSH2 0xBF3 PUSH1 0x0 DUP4 ADD DUP5 PUSH2 0xBCF JUMP JUMPDEST SWAP3 SWAP2 POP POP JUMP JUMPDEST PUSH1 0x0 PUSH20 0xFFFFFFFFFFFFFFFFFFFFFFFFFFFFFFFFFFFFFFFF DUP3 AND SWAP1 POP SWAP2 SWAP1 POP JUMP JUMPDEST PUSH1 0x0 PUSH2 0xC24 DUP3 PUSH2 0xBF9 JUMP JUMPDEST SWAP1 POP SWAP2 SWAP1 POP JUMP JUMPDEST PUSH2 0xC34 DUP2 PUSH2 0xC19 JUMP JUMPDEST DUP2 EQ PUSH2 0xC3F JUMPI PUSH1 0x0 DUP1 REVERT JUMPDEST POP JUMP JUMPDEST PUSH1 0x0 DUP2 CALLDATALOAD SWAP1 POP PUSH2 0xC51 DUP2 PUSH2 0xC2B JUMP JUMPDEST SWAP3 SWAP2 POP POP JUMP JUMPDEST PUSH1 0x0 PUSH1 0x20 DUP3 DUP5 SUB SLT ISZERO PUSH2 0xC6D JUMPI PUSH2 0xC6C PUSH2 0x716 JUMP JUMPDEST JUMPDEST PUSH1 0x0 PUSH2 0xC7B DUP5 DUP3 DUP6 ADD PUSH2 0xC42 JUMP JUMPDEST SWAP2 POP POP SWAP3 SWAP2 POP POP JUMP JUMPDEST PUSH32 0x496E76616C69642063616E64696461746520696E6465782E0000000000000000 PUSH1 0x0 DUP3 ADD MSTORE POP JUMP JUMPDEST PUSH1 0x0 PUSH2 0xCBA PUSH1 0x18 DUP4 PUSH2 0x976 JUMP JUMPDEST SWAP2 POP PUSH2 0xCC5 DUP3 PUSH2 0xC84 JUMP JUMPDEST PUSH1 0x20 DUP3 ADD SWAP1 POP SWAP2 SWAP1 POP JUMP JUMPDEST PUSH1 0x0 PUSH1 0x20 DUP3 ADD SWAP1 POP DUP2 DUP2 SUB PUSH1 0x0 DUP4 ADD MSTORE PUSH2 0xCE9 DUP2 PUSH2 0xCAD JUMP JUMPDEST SWAP1 POP SWAP2 SWAP1 POP JUMP JUMPDEST PUSH32 0x4E487B7100000000000000000000000000000000000000000000000000000000 PUSH1 0x0 MSTORE PUSH1 0x32 PUSH1 0x4 MSTORE PUSH1 0x24 PUSH1 0x0 REVERT JUMPDEST PUSH32 0x4E487B7100000000000000000000000000000000000000000000000000000000 PUSH1 0x0 MSTORE PUSH1 0x11 PUSH1 0x4 MSTORE PUSH1 0x24 PUSH1 0x0 REVERT JUMPDEST PUSH1 0x0 PUSH2 0xD59 DUP3 PUSH2 0x720 JUMP JUMPDEST SWAP2 POP PUSH32 0xFFFFFFFFFFFFFFFFFFFFFFFFFFFFFFFFFFFFFFFFFFFFFFFFFFFFFFFFFFFFFFFF DUP3 SUB PUSH2 0xD8B JUMPI PUSH2 0xD8A PUSH2 0xD1F JUMP JUMPDEST JUMPDEST PUSH1 0x1 DUP3 ADD SWAP1 POP SWAP2 SWAP1 POP JUMP JUMPDEST PUSH32 0x4E487B7100000000000000000000000000000000000000000000000000000000 PUSH1 0x0 MSTORE PUSH1 0x22 PUSH1 0x4 MSTORE PUSH1 0x24 PUSH1 0x0 REVERT JUMPDEST PUSH1 0x0 PUSH1 0x2 DUP3 DIV SWAP1 POP PUSH1 0x1 DUP3 AND DUP1 PUSH2 0xDDD JUMPI PUSH1 0x7F DUP3 AND SWAP2 POP JUMPDEST PUSH1 0x20 DUP3 LT DUP2 SUB PUSH2 0xDF0 JUMPI PUSH2 0xDEF PUSH2 0xD96 JUMP JUMPDEST JUMPDEST POP SWAP2 SWAP1 POP JUMP JUMPDEST PUSH1 0x0 DUP2 SWAP1 POP DUP2 PUSH1 0x0 MSTORE PUSH1 0x20 PUSH1 0x0 KECCAK256 SWAP1 POP SWAP2 SWAP1 POP JUMP JUMPDEST PUSH1 0x0 PUSH1 0x20 PUSH1 0x1F DUP4 ADD DIV SWAP1 POP SWAP2 SWAP1 POP JUMP JUMPDEST PUSH1 0x0 DUP3 DUP3 SHL SWAP1 POP SWAP3 SWAP2 POP POP JUMP JUMPDEST PUSH1 0x0 PUSH1 0x8 DUP4 MUL PUSH2 0xE58 PUSH32 0xFFFFFFFFFFFFFFFFFFFFFFFFFFFFFFFFFFFFFFFFFFFFFFFFFFFFFFFFFFFFFFFF DUP3 PUSH2 0xE1B JUMP JUMPDEST PUSH2 0xE62 DUP7 DUP4 PUSH2 0xE1B JUMP JUMPDEST SWAP6 POP DUP1 NOT DUP5 AND SWAP4 POP DUP1 DUP7 AND DUP5 OR SWAP3 POP POP POP SWAP4 SWAP3 POP POP POP JUMP JUMPDEST PUSH1 0x0 DUP2 SWAP1 POP SWAP2 SWAP1 POP JUMP JUMPDEST PUSH1 0x0 PUSH2 0xE9F PUSH2 0xE9A PUSH2 0xE95 DUP5 PUSH2 0x720 JUMP JUMPDEST PUSH2 0xE7A JUMP JUMPDEST PUSH2 0x720 JUMP JUMPDEST SWAP1 POP SWAP2 SWAP1 POP JUMP JUMPDEST PUSH1 0x0 DUP2 SWAP1 POP SWAP2 SWAP1 POP JUMP JUMPDEST PUSH2 0xEB9 DUP4 PUSH2 0xE84 JUMP JUMPDEST PUSH2 0xECD PUSH2 0xEC5 DUP3 PUSH2 0xEA6 JUMP JUMPDEST DUP5 DUP5 SLOAD PUSH2 0xE28 JUMP JUMPDEST DUP3 SSTORE POP POP POP POP JUMP JUMPDEST PUSH1 0x0 SWAP1 JUMP JUMPDEST PUSH2 0xEE2 PUSH2 0xED5 JUMP JUMPDEST PUSH2 0xEED DUP2 DUP5 DUP5 PUSH2 0xEB0 JUMP JUMPDEST POP POP POP JUMP JUMPDEST JUMPDEST DUP2 DUP2 LT ISZERO PUSH2 0xF11 JUMPI PUSH2 0xF06 PUSH1 0x0 DUP3 PUSH2 0xEDA JUMP JUMPDEST PUSH1 0x1 DUP2 ADD SWAP1 POP PUSH2 0xEF3 JUMP JUMPDEST POP POP JUMP JUMPDEST PUSH1 0x1F DUP3 GT ISZERO PUSH2 0xF56 JUMPI PUSH2 0xF27 DUP2 PUSH2 0xDF6 JUMP JUMPDEST PUSH2 0xF30 DUP5 PUSH2 0xE0B JUMP JUMPDEST DUP2 ADD PUSH1 0x20 DUP6 LT ISZERO PUSH2 0xF3F JUMPI DUP2 SWAP1 POP JUMPDEST PUSH2 0xF53 PUSH2 0xF4B DUP6 PUSH2 0xE0B JUMP JUMPDEST DUP4 ADD DUP3 PUSH2 0xEF2 JUMP JUMPDEST POP POP JUMPDEST POP POP POP JUMP JUMPDEST PUSH1 0x0 DUP3 DUP3 SHR SWAP1 POP SWAP3 SWAP2 POP POP JUMP JUMPDEST PUSH1 0x0 PUSH2 0xF79 PUSH1 0x0 NOT DUP5 PUSH1 0x8 MUL PUSH2 0xF5B JUMP JUMPDEST NOT DUP1 DUP4 AND SWAP2 POP POP SWAP3 SWAP2 POP POP JUMP JUMPDEST PUSH1 0x0 PUSH2 0xF92 DUP4 DUP4 PUSH2 0xF68 JUMP JUMPDEST SWAP2 POP DUP3 PUSH1 0x2 MUL DUP3 OR SWAP1 POP SWAP3 SWAP2 POP POP JUMP JUMPDEST PUSH2 0xFAB DUP3 PUSH2 0x96B JUMP JUMPDEST PUSH8 0xFFFFFFFFFFFFFFFF DUP2 GT ISZERO PUSH2 0xFC4 JUMPI PUSH2 0xFC3 PUSH2 0x7C8 JUMP JUMPDEST JUMPDEST PUSH2 0xFCE DUP3 SLOAD PUSH2 0xDC5 JUMP JUMPDEST PUSH2 0xFD9 DUP3 DUP3 DUP6 PUSH2 0xF15 JUMP JUMPDEST PUSH1 0x0 PUSH1 0x20 SWAP1 POP PUSH1 0x1F DUP4 GT PUSH1 0x1 DUP2 EQ PUSH2 0x100C JUMPI PUSH1 0x0 DUP5 ISZERO PUSH2 0xFFA JUMPI DUP3 DUP8 ADD MLOAD SWAP1 POP JUMPDEST PUSH2 0x1004 DUP6 DUP3 PUSH2 0xF86 JUMP JUMPDEST DUP7 SSTORE POP PUSH2 0x106C JUMP JUMPDEST PUSH1 0x1F NOT DUP5 AND PUSH2 0x101A DUP7 PUSH2 0xDF6 JUMP JUMPDEST PUSH1 0x0 JUMPDEST DUP3 DUP2 LT ISZERO PUSH2 0x1042 JUMPI DUP5 DUP10 ADD MLOAD DUP3 SSTORE PUSH1 0x1 DUP3 ADD SWAP2 POP PUSH1 0x20 DUP6 ADD SWAP5 POP PUSH1 0x20 DUP2 ADD SWAP1 POP PUSH2 0x101D JUMP JUMPDEST DUP7 DUP4 LT ISZERO PUSH2 0x105F JUMPI DUP5 DUP10 ADD MLOAD PUSH2 0x105B PUSH1 0x1F DUP10 AND DUP3 PUSH2 0xF68 JUMP JUMPDEST DUP4 SSTORE POP JUMPDEST PUSH1 0x1 PUSH1 0x2 DUP9 MUL ADD DUP9 SSTORE POP POP POP JUMPDEST POP POP POP POP POP POP JUMP JUMPDEST PUSH32 0x566F74696E6720686173206E6F742073746172746564207965742E0000000000 PUSH1 0x0 DUP3 ADD MSTORE POP JUMP JUMPDEST PUSH1 0x0 PUSH2 0x10AA PUSH1 0x1B DUP4 PUSH2 0x976 JUMP JUMPDEST SWAP2 POP PUSH2 0x10B5 DUP3 PUSH2 0x1074 JUMP JUMPDEST PUSH1 0x20 DUP3 ADD SWAP1 POP SWAP2 SWAP1 POP JUMP JUMPDEST PUSH1 0x0 PUSH1 0x20 DUP3 ADD SWAP1 POP DUP2 DUP2 SUB PUSH1 0x0 DUP4 ADD MSTORE PUSH2 0x10D9 DUP2 PUSH2 0x109D JUMP JUMPDEST SWAP1 POP SWAP2 SWAP1 POP JUMP JUMPDEST PUSH1 0x0 PUSH2 0x10EB DUP3 PUSH2 0x720 JUMP JUMPDEST SWAP2 POP PUSH2 0x10F6 DUP4 PUSH2 0x720 JUMP JUMPDEST SWAP3 POP DUP3 DUP3 SUB SWAP1 POP DUP2 DUP2 GT ISZERO PUSH2 0x110E JUMPI PUSH2 0x110D PUSH2 0xD1F JUMP JUMPDEST JUMPDEST SWAP3 SWAP2 POP POP JUMP INVALID LOG2 PUSH5 0x6970667358 0x22 SLT KECCAK256 0xD9 0x5E SUB PUSH2 0x8C4 JUMPI SWAP7 SELFDESTRUCT 0xC4 LOG3 NOT 0xC7 SWAP16 0xE4 SIGNEXTEND 0xC3 SELFBALANCE SAR 0x29 SWAP16 0xA6 0xA9 SUB SMOD BYTE PUSH19 0xEF2145C06E64736F6C63430008110033000000 "},"methodIdentifiers":{"addCandidate(string,string)":"26541b56","candidates(uint256)":"3477ee2e","getAllVotesOfCandiates()":"4d6bda5f","getRemainingTime()":"efb98bcf","getVotingStatus()":"581c281c","vote(uint256)":"0121b93f","voters(address)":"a3ec138d","votingEnd()":"85a38635","votingStart()":"101158af"}}}}}