{
  "_format": "hh-sol-artifact-1",
  "contractName": "Voting",
  "sourceName": "contracts/Voting.sol",
  "abi": [
    {
      "inputs": [
        {
          "internalType": "string[]",
          "name": "_candidateNames",
          "type": "string[]"
        },
        {
          "internalType": "string[]",
          "name": "_candidateParty",
          "type": "string[]"
        },
        {
          "internalType": "uint256",
          "name": "_durationInMinutes",
          "type": "uint256"
        }
      ],
      "stateMutability": "nonpayable",
      "type": "constructor"
    },
    {
      "inputs": [
        {
          "internalType": "string",
          "name": "_name",
          "type": "string"
        },
        {
          "internalType": "string",
          "name": "_party",
          "type": "string"
        }
      ],
      "name": "addCandidate",
      "outputs": [],
      "stateMutability": "nonpayable",
      "type": "function"
    },
    {
      "inputs": [
        {
          "internalType": "uint256",
          "name": "",
          "type": "uint256"
        }
      ],
      "name": "candidates",
      "outputs": [
        {
          "internalType": "string",
          "name": "name",
          "type": "string"
        },
        {
          "internalType": "string",
          "name": "party",
          "type": "string"
        },
        {
          "internalType": "uint256",
          "name": "voteCount",
          "type": "uint256"
        }
      ],
      "stateMutability": "view",
      "type": "function"
    },
    {
      "inputs": [],
      "name": "getAllVotesOfCandiates",
      "outputs": [
        {
          "components": [
            {
              "internalType": "string",
              "name": "name",
              "type": "string"
            },
            {
              "internalType": "string",
              "name": "party",
              "type": "string"
            },
            {
              "internalType": "uint256",
              "name": "voteCount",
              "type": "uint256"
            }
          ],
          "internalType": "struct Voting.Candidate[]",
          "name": "",
          "type": "tuple[]"
        }
      ],
      "stateMutability": "view",
      "type": "function"
    },
    {
      "inputs": [],
      "name": "getRemainingTime",
      "outputs": [
        {
          "internalType": "uint256",
          "name": "",
          "type": "uint256"
        }
      ],
      "stateMutability": "view",
      "type": "function"
    },
    {
      "inputs": [],
      "name": "getVotingStatus",
      "outputs": [
        {
          "internalType": "bool",
          "name": "",
          "type": "bool"
        }
      ],
      "stateMutability": "view",
      "type": "function"
    },
    {
      "inputs": [
        {
          "internalType": "uint256",
          "name": "_candidateIndex",
          "type": "uint256"
        }
      ],
      "name": "vote",
      "outputs": [],
      "stateMutability": "nonpayable",
      "type": "function"
    },
    {
      "inputs": [
        {
          "internalType": "address",
          "name": "",
          "type": "address"
        }
      ],
      "name": "voters",
      "outputs": [
        {
          "internalType": "bool",
          "name": "",
          "type": "bool"
        }
      ],
      "stateMutability": "view",
      "type": "function"
    },
    {
      "inputs": [],
      "name": "votingEnd",
      "outputs": [
        {
          "internalType": "uint256",
          "name": "",
          "type": "uint256"
        }
      ],
      "stateMutability": "view",
      "type": "function"
    },
    {
      "inputs": [],
      "name": "votingStart",
      "outputs": [
        {
          "internalType": "uint256",
          "name": "",
          "type": "uint256"
        }
      ],
      "stateMutability": "view",
      "type": "function"
    }
  ],
  "bytecode": "0x60806040523480156200001157600080fd5b5060405162001b9b38038062001b9b833981810160405281019062000037919062000455565b60005b8351811015620001175760006040518060600160405280868481518110620000675762000066620004ef565b5b602002602001015181526020018584815181106200008a5762000089620004ef565b5b60200260200101518152602001600081525090806001815401808255809150506001900390600052602060002090600302016000909190919091506000820151816000019081620000dc91906200075f565b506020820151816001019081620000f491906200075f565b5060408201518160020155505080806200010e9062000875565b9150506200003a565b5033600160006101000a81548173ffffffffffffffffffffffffffffffffffffffff021916908373ffffffffffffffffffffffffffffffffffffffff16021790555042600381905550603c816200016f9190620008c2565b426200017c91906200090d565b60048190555050505062000948565b6000604051905090565b600080fd5b600080fd5b600080fd5b6000601f19601f8301169050919050565b7f4e487b7100000000000000000000000000000000000000000000000000000000600052604160045260246000fd5b620001ef82620001a4565b810181811067ffffffffffffffff82111715620002115762000210620001b5565b5b80604052505050565b6000620002266200018b565b9050620002348282620001e4565b919050565b600067ffffffffffffffff821115620002575762000256620001b5565b5b602082029050602081019050919050565b600080fd5b600080fd5b600067ffffffffffffffff82111562000290576200028f620001b5565b5b6200029b82620001a4565b9050602081019050919050565b60005b83811015620002c8578082015181840152602081019050620002ab565b60008484015250505050565b6000620002eb620002e58462000272565b6200021a565b9050828152602081018484840111156200030a57620003096200026d565b5b62000317848285620002a8565b509392505050565b600082601f8301126200033757620003366200019f565b5b815162000349848260208601620002d4565b91505092915050565b600062000369620003638462000239565b6200021a565b905080838252602082019050602084028301858111156200038f576200038e62000268565b5b835b81811015620003dd57805167ffffffffffffffff811115620003b857620003b76200019f565b5b808601620003c789826200031f565b8552602085019450505060208101905062000391565b5050509392505050565b600082601f830112620003ff57620003fe6200019f565b5b81516200041184826020860162000352565b91505092915050565b6000819050919050565b6200042f816200041a565b81146200043b57600080fd5b50565b6000815190506200044f8162000424565b92915050565b60008060006060848603121562000471576200047062000195565b5b600084015167ffffffffffffffff8111156200049257620004916200019a565b5b620004a086828701620003e7565b935050602084015167ffffffffffffffff811115620004c457620004c36200019a565b5b620004d286828701620003e7565b9250506040620004e5868287016200043e565b9150509250925092565b7f4e487b7100000000000000000000000000000000000000000000000000000000600052603260045260246000fd5b600081519050919050565b7f4e487b7100000000000000000000000000000000000000000000000000000000600052602260045260246000fd5b600060028204905060018216806200057157607f821691505b60208210810362000587576200058662000529565b5b50919050565b60008190508160005260206000209050919050565b60006020601f8301049050919050565b600082821b905092915050565b600060088302620005f17fffffffffffffffffffffffffffffffffffffffffffffffffffffffffffffffff82620005b2565b620005fd8683620005b2565b95508019841693508086168417925050509392505050565b6000819050919050565b6000620006406200063a62000634846200041a565b62000615565b6200041a565b9050919050565b6000819050919050565b6200065c836200061f565b620006746200066b8262000647565b848454620005bf565b825550505050565b600090565b6200068b6200067c565b6200069881848462000651565b505050565b5b81811015620006c057620006b460008262000681565b6001810190506200069e565b5050565b601f8211156200070f57620006d9816200058d565b620006e484620005a2565b81016020851015620006f4578190505b6200070c6200070385620005a2565b8301826200069d565b50505b505050565b600082821c905092915050565b6000620007346000198460080262000714565b1980831691505092915050565b60006200074f838362000721565b9150826002028217905092915050565b6200076a826200051e565b67ffffffffffffffff811115620007865762000785620001b5565b5b62000792825462000558565b6200079f828285620006c4565b600060209050601f831160018114620007d75760008415620007c2578287015190505b620007ce858262000741565b8655506200083e565b601f198416620007e7866200058d565b60005b828110156200081157848901518255600182019150602085019450602081019050620007ea565b868310156200083157848901516200082d601f89168262000721565b8355505b6001600288020188555050505b505050505050565b7f4e487b7100000000000000000000000000000000000000000000000000000000600052601160045260246000fd5b600062000882826200041a565b91507fffffffffffffffffffffffffffffffffffffffffffffffffffffffffffffffff8203620008b757620008b662000846565b5b600182019050919050565b6000620008cf826200041a565b9150620008dc836200041a565b9250828202620008ec816200041a565b9150828204841483151762000906576200090562000846565b5b5092915050565b60006200091a826200041a565b915062000927836200041a565b925082820190508082111562000942576200094162000846565b5b92915050565b61124380620009586000396000f3fe608060405234801561001057600080fd5b50600436106100935760003560e01c80634d6bda5f116100665780634d6bda5f14610120578063581c281c1461013e57806385a386351461015c578063a3ec138d1461017a578063efb98bcf146101aa57610093565b80630121b93f14610098578063101158af146100b457806326541b56146100d25780633477ee2e146100ee575b600080fd5b6100b260048036038101906100ad91906107e3565b6101c8565b005b6100bc610332565b6040516100c9919061081f565b60405180910390f35b6100ec60048036038101906100e79190610980565b610338565b005b610108600480360381019061010391906107e3565b610415565b60405161011793929190610a77565b60405180910390f35b61012861055f565b6040516101359190610c2e565b60405180910390f35b6101466106ec565b6040516101539190610c6b565b60405180910390f35b610164610706565b604051610171919061081f565b60405180910390f35b610194600480360381019061018f9190610ce4565b61070c565b6040516101a19190610c6b565b60405180910390f35b6101b261072c565b6040516101bf919061081f565b60405180910390f35b600260003373ffffffffffffffffffffffffffffffffffffffff1673ffffffffffffffffffffffffffffffffffffffff16815260200190815260200160002060009054906101000a900460ff1615610255576040517f08c379a000000000000000000000000000000000000000000000000000000000815260040161024c90610d5d565b60405180910390fd5b600080549050811061029c576040517f08c379a000000000000000000000000000000000000000000000000000000000815260040161029390610dc9565b60405180910390fd5b600081815481106102b0576102af610de9565b5b906000526020600020906003020160020160008154809291906102d290610e47565b91905055506001600260003373ffffffffffffffffffffffffffffffffffffffff1673ffffffffffffffffffffffffffffffffffffffff16815260200190815260200160002060006101000a81548160ff02191690831515021790555050565b60035481565b600160009054906101000a900473ffffffffffffffffffffffffffffffffffffffff1673ffffffffffffffffffffffffffffffffffffffff163373ffffffffffffffffffffffffffffffffffffffff161461039257600080fd5b600060405180606001604052808481526020018381526020016000815250908060018154018082558091505060019003906000526020600020906003020160009091909190915060008201518160000190816103ee919061109b565b506020820151816001019081610404919061109b565b506040820151816002015550505050565b6000818154811061042557600080fd5b906000526020600020906003020160009150905080600001805461044890610ebe565b80601f016020809104026020016040519081016040528092919081815260200182805461047490610ebe565b80156104c15780601f10610496576101008083540402835291602001916104c1565b820191906000526020600020905b8154815290600101906020018083116104a457829003601f168201915b5050505050908060010180546104d690610ebe565b80601f016020809104026020016040519081016040528092919081815260200182805461050290610ebe565b801561054f5780601f106105245761010080835404028352916020019161054f565b820191906000526020600020905b81548152906001019060200180831161053257829003601f168201915b5050505050908060020154905083565b60606000805480602002602001604051908101604052809291908181526020016000905b828210156106e357838290600052602060002090600302016040518060600160405290816000820180546105b690610ebe565b80601f01602080910402602001604051908101604052809291908181526020018280546105e290610ebe565b801561062f5780601f106106045761010080835404028352916020019161062f565b820191906000526020600020905b81548152906001019060200180831161061257829003601f168201915b5050505050815260200160018201805461064890610ebe565b80601f016020809104026020016040519081016040528092919081815260200182805461067490610ebe565b80156106c15780601f10610696576101008083540402835291602001916106c1565b820191906000526020600020905b8154815290600101906020018083116106a457829003601f168201915b5050505050815260200160028201548152505081526020019060010190610583565b50505050905090565b60006003544210158015610701575060045442105b905090565b60045481565b60026020528060005260406000206000915054906101000a900460ff1681565b6000600354421015610773576040517f08c379a000000000000000000000000000000000000000000000000000000000815260040161076a906111b9565b60405180910390fd5b60045442106107855760009050610796565b4260045461079391906111d9565b90505b90565b6000604051905090565b600080fd5b600080fd5b6000819050919050565b6107c0816107ad565b81146107cb57600080fd5b50565b6000813590506107dd816107b7565b92915050565b6000602082840312156107f9576107f86107a3565b5b6000610807848285016107ce565b91505092915050565b610819816107ad565b82525050565b60006020820190506108346000830184610810565b92915050565b600080fd5b600080fd5b6000601f19601f8301169050919050565b7f4e487b7100000000000000000000000000000000000000000000000000000000600052604160045260246000fd5b61088d82610844565b810181811067ffffffffffffffff821117156108ac576108ab610855565b5b80604052505050565b60006108bf610799565b90506108cb8282610884565b919050565b600067ffffffffffffffff8211156108eb576108ea610855565b5b6108f482610844565b9050602081019050919050565b82818337600083830152505050565b600061092361091e846108d0565b6108b5565b90508281526020810184848401111561093f5761093e61083f565b5b61094a848285610901565b509392505050565b600082601f8301126109675761096661083a565b5b8135610977848260208601610910565b91505092915050565b60008060408385031215610997576109966107a3565b5b600083013567ffffffffffffffff8111156109b5576109b46107a8565b5b6109c185828601610952565b925050602083013567ffffffffffffffff8111156109e2576109e16107a8565b5b6109ee85828601610952565b9150509250929050565b600081519050919050565b600082825260208201905092915050565b60005b83811015610a32578082015181840152602081019050610a17565b60008484015250505050565b6000610a49826109f8565b610a538185610a03565b9350610a63818560208601610a14565b610a6c81610844565b840191505092915050565b60006060820190508181036000830152610a918186610a3e565b90508181036020830152610aa58185610a3e565b9050610ab46040830184610810565b949350505050565b600081519050919050565b600082825260208201905092915050565b6000819050602082019050919050565b600082825260208201905092915050565b6000610b04826109f8565b610b0e8185610ae8565b9350610b1e818560208601610a14565b610b2781610844565b840191505092915050565b610b3b816107ad565b82525050565b60006060830160008301518482036000860152610b5e8282610af9565b91505060208301518482036020860152610b788282610af9565b9150506040830151610b8d6040860182610b32565b508091505092915050565b6000610ba48383610b41565b905092915050565b6000602082019050919050565b6000610bc482610abc565b610bce8185610ac7565b935083602082028501610be085610ad8565b8060005b85811015610c1c5784840389528151610bfd8582610b98565b9450610c0883610bac565b925060208a01995050600181019050610be4565b50829750879550505050505092915050565b60006020820190508181036000830152610c488184610bb9565b905092915050565b60008115159050919050565b610c6581610c50565b82525050565b6000602082019050610c806000830184610c5c565b92915050565b600073ffffffffffffffffffffffffffffffffffffffff82169050919050565b6000610cb182610c86565b9050919050565b610cc181610ca6565b8114610ccc57600080fd5b50565b600081359050610cde81610cb8565b92915050565b600060208284031215610cfa57610cf96107a3565b5b6000610d0884828501610ccf565b91505092915050565b7f596f75206861766520616c726561647920766f7465642e000000000000000000600082015250565b6000610d47601783610a03565b9150610d5282610d11565b602082019050919050565b60006020820190508181036000830152610d7681610d3a565b9050919050565b7f496e76616c69642063616e64696461746520696e6465782e0000000000000000600082015250565b6000610db3601883610a03565b9150610dbe82610d7d565b602082019050919050565b60006020820190508181036000830152610de281610da6565b9050919050565b7f4e487b7100000000000000000000000000000000000000000000000000000000600052603260045260246000fd5b7f4e487b7100000000000000000000000000000000000000000000000000000000600052601160045260246000fd5b6000610e52826107ad565b91507fffffffffffffffffffffffffffffffffffffffffffffffffffffffffffffffff8203610e8457610e83610e18565b5b600182019050919050565b7f4e487b7100000000000000000000000000000000000000000000000000000000600052602260045260246000fd5b60006002820490506001821680610ed657607f821691505b602082108103610ee957610ee8610e8f565b5b50919050565b60008190508160005260206000209050919050565b60006020601f8301049050919050565b600082821b905092915050565b600060088302610f517fffffffffffffffffffffffffffffffffffffffffffffffffffffffffffffffff82610f14565b610f5b8683610f14565b95508019841693508086168417925050509392505050565b6000819050919050565b6000610f98610f93610f8e846107ad565b610f73565b6107ad565b9050919050565b6000819050919050565b610fb283610f7d565b610fc6610fbe82610f9f565b848454610f21565b825550505050565b600090565b610fdb610fce565b610fe6818484610fa9565b505050565b5b8181101561100a57610fff600082610fd3565b600181019050610fec565b5050565b601f82111561104f5761102081610eef565b61102984610f04565b81016020851015611038578190505b61104c61104485610f04565b830182610feb565b50505b505050565b600082821c905092915050565b600061107260001984600802611054565b1980831691505092915050565b600061108b8383611061565b9150826002028217905092915050565b6110a4826109f8565b67ffffffffffffffff8111156110bd576110bc610855565b5b6110c78254610ebe565b6110d282828561100e565b600060209050601f83116001811461110557600084156110f3578287015190505b6110fd858261107f565b865550611165565b601f19841661111386610eef565b60005b8281101561113b57848901518255600182019150602085019450602081019050611116565b868310156111585784890151611154601f891682611061565b8355505b6001600288020188555050505b505050505050565b7f566f74696e6720686173206e6f742073746172746564207965742e0000000000600082015250565b60006111a3601b83610a03565b91506111ae8261116d565b602082019050919050565b600060208201905081810360008301526111d281611196565b9050919050565b60006111e4826107ad565b91506111ef836107ad565b925082820390508181111561120757611206610e18565b5b9291505056fea2646970667358221220f19c8c67964638eb7831b28542aa7621b5373473990a1d8ec6d69787d46a37fe64736f6c63430008110033",
  "linkReferences": {},
  "deployedLinkReferences": {}
}