{
  "_format": "hh-sol-artifact-1",
  "contractName": "Voting",
  "sourceName": "contracts/Voting.sol",
  "abi": [
    {
      "inputs": [
        {
          "internalType": "string[]",
          "name": "_candidateNames",
          "type": "string[]"
        },
        {
          "internalType": "string[]",
          "name": "_candidateParty",
          "type": "string[]"
        },
        {
          "internalType": "uint256",
          "name": "_durationInMinutes",
          "type": "uint256"
        }
      ],
      "stateMutability": "nonpayable",
      "type": "constructor"
    },
    {
      "inputs": [
        {
          "internalType": "string",
          "name": "_name",
          "type": "string"
        },
        {
          "internalType": "string",
          "name": "_party",
          "type": "string"
        }
      ],
      "name": "addCandidate",
      "outputs": [],
      "stateMutability": "nonpayable",
      "type": "function"
    },
    {
      "inputs": [
        {
          "internalType": "uint256",
          "name": "",
          "type": "uint256"
        }
      ],
      "name": "candidates",
      "outputs": [
        {
          "internalType": "string",
          "name": "name",
          "type": "string"
        },
        {
          "internalType": "string",
          "name": "party",
          "type": "string"
        },
        {
          "internalType": "uint256",
          "name": "voteCount",
          "type": "uint256"
        }
      ],
      "stateMutability": "view",
      "type": "function"
    },
    {
      "inputs": [],
      "name": "getAllVotesOfCandiates",
      "outputs": [
        {
          "components": [
            {
              "internalType": "string",
              "name": "name",
              "type": "string"
            },
            {
              "internalType": "string",
              "name": "party",
              "type": "string"
            },
            {
              "internalType": "uint256",
              "name": "voteCount",
              "type": "uint256"
            }
          ],
          "internalType": "struct Voting.Candidate[]",
          "name": "",
          "type": "tuple[]"
        }
      ],
      "stateMutability": "view",
      "type": "function"
    },
    {
      "inputs": [],
      "name": "getRemainingTime",
      "outputs": [
        {
          "internalType": "uint256",
          "name": "",
          "type": "uint256"
        }
      ],
      "stateMutability": "view",
      "type": "function"
    },
    {
      "inputs": [],
      "name": "getVotingStatus",
      "outputs": [
        {
          "internalType": "bool",
          "name": "",
          "type": "bool"
        }
      ],
      "stateMutability": "view",
      "type": "function"
    },
    {
      "inputs": [
        {
          "internalType": "uint256",
          "name": "_candidateIndex",
          "type": "uint256"
        }
      ],
      "name": "vote",
      "outputs": [],
      "stateMutability": "nonpayable",
      "type": "function"
    },
    {
      "inputs": [
        {
          "internalType": "address",
          "name": "",
          "type": "address"
        }
      ],
      "name": "voters",
      "outputs": [
        {
          "internalType": "bool",
          "name": "",
          "type": "bool"
        }
      ],
      "stateMutability": "view",
      "type": "function"
    },
    {
      "inputs": [],
      "name": "votingEnd",
      "outputs": [
        {
          "internalType": "uint256",
          "name": "",
          "type": "uint256"
        }
      ],
      "stateMutability": "view",
      "type": "function"
    },
    {
      "inputs": [],
      "name": "votingStart",
      "outputs": [
        {
          "internalType": "uint256",
          "name": "",
          "type": "uint256"
        }
      ],
      "stateMutability": "view",
      "type": "function"
    }
  ],
  "bytecode": "0x60806040523480156200001157600080fd5b5060405162001aa238038062001aa2833981810160405281019062000037919062000455565b60005b8351811015620001175760006040518060600160405280868481518110620000675762000066620004ef565b5b602002602001015181526020018584815181106200008a5762000089620004ef565b5b60200260200101518152602001600081525090806001815401808255809150506001900390600052602060002090600302016000909190919091506000820151816000019081620000dc91906200075f565b506020820151816001019081620000f491906200075f565b5060408201518160020155505080806200010e9062000875565b9150506200003a565b5033600160006101000a81548173ffffffffffffffffffffffffffffffffffffffff021916908373ffffffffffffffffffffffffffffffffffffffff16021790555042600381905550603c816200016f9190620008c2565b426200017c91906200090d565b60048190555050505062000948565b6000604051905090565b600080fd5b600080fd5b600080fd5b6000601f19601f8301169050919050565b7f4e487b7100000000000000000000000000000000000000000000000000000000600052604160045260246000fd5b620001ef82620001a4565b810181811067ffffffffffffffff82111715620002115762000210620001b5565b5b80604052505050565b6000620002266200018b565b9050620002348282620001e4565b919050565b600067ffffffffffffffff821115620002575762000256620001b5565b5b602082029050602081019050919050565b600080fd5b600080fd5b600067ffffffffffffffff82111562000290576200028f620001b5565b5b6200029b82620001a4565b9050602081019050919050565b60005b83811015620002c8578082015181840152602081019050620002ab565b60008484015250505050565b6000620002eb620002e58462000272565b6200021a565b9050828152602081018484840111156200030a57620003096200026d565b5b62000317848285620002a8565b509392505050565b600082601f8301126200033757620003366200019f565b5b815162000349848260208601620002d4565b91505092915050565b600062000369620003638462000239565b6200021a565b905080838252602082019050602084028301858111156200038f576200038e62000268565b5b835b81811015620003dd57805167ffffffffffffffff811115620003b857620003b76200019f565b5b808601620003c789826200031f565b8552602085019450505060208101905062000391565b5050509392505050565b600082601f830112620003ff57620003fe6200019f565b5b81516200041184826020860162000352565b91505092915050565b6000819050919050565b6200042f816200041a565b81146200043b57600080fd5b50565b6000815190506200044f8162000424565b92915050565b60008060006060848603121562000471576200047062000195565b5b600084015167ffffffffffffffff8111156200049257620004916200019a565b5b620004a086828701620003e7565b935050602084015167ffffffffffffffff811115620004c457620004c36200019a565b5b620004d286828701620003e7565b9250506040620004e5868287016200043e565b9150509250925092565b7f4e487b7100000000000000000000000000000000000000000000000000000000600052603260045260246000fd5b600081519050919050565b7f4e487b7100000000000000000000000000000000000000000000000000000000600052602260045260246000fd5b600060028204905060018216806200057157607f821691505b60208210810362000587576200058662000529565b5b50919050565b60008190508160005260206000209050919050565b60006020601f8301049050919050565b600082821b905092915050565b600060088302620005f17fffffffffffffffffffffffffffffffffffffffffffffffffffffffffffffffff82620005b2565b620005fd8683620005b2565b95508019841693508086168417925050509392505050565b6000819050919050565b6000620006406200063a62000634846200041a565b62000615565b6200041a565b9050919050565b6000819050919050565b6200065c836200061f565b620006746200066b8262000647565b848454620005bf565b825550505050565b600090565b6200068b6200067c565b6200069881848462000651565b505050565b5b81811015620006c057620006b460008262000681565b6001810190506200069e565b5050565b601f8211156200070f57620006d9816200058d565b620006e484620005a2565b81016020851015620006f4578190505b6200070c6200070385620005a2565b8301826200069d565b50505b505050565b600082821c905092915050565b6000620007346000198460080262000714565b1980831691505092915050565b60006200074f838362000721565b9150826002028217905092915050565b6200076a826200051e565b67ffffffffffffffff811115620007865762000785620001b5565b5b62000792825462000558565b6200079f828285620006c4565b600060209050601f831160018114620007d75760008415620007c2578287015190505b620007ce858262000741565b8655506200083e565b601f198416620007e7866200058d565b60005b828110156200081157848901518255600182019150602085019450602081019050620007ea565b868310156200083157848901516200082d601f89168262000721565b8355505b6001600288020188555050505b505050505050565b7f4e487b7100000000000000000000000000000000000000000000000000000000600052601160045260246000fd5b600062000882826200041a565b91507fffffffffffffffffffffffffffffffffffffffffffffffffffffffffffffffff8203620008b757620008b662000846565b5b600182019050919050565b6000620008cf826200041a565b9150620008dc836200041a565b9250828202620008ec816200041a565b9150828204841483151762000906576200090562000846565b5b5092915050565b60006200091a826200041a565b915062000927836200041a565b925082820190508082111562000942576200094162000846565b5b92915050565b61114a80620009586000396000f3fe608060405234801561001057600080fd5b50600436106100935760003560e01c80634d6bda5f116100665780634d6bda5f14610120578063581c281c1461013e57806385a386351461015c578063a3ec138d1461017a578063efb98bcf146101aa57610093565b80630121b93f14610098578063101158af146100b457806326541b56146100d25780633477ee2e146100ee575b600080fd5b6100b260048036038101906100ad9190610756565b6101c8565b005b6100bc6102a5565b6040516100c99190610792565b60405180910390f35b6100ec60048036038101906100e791906108f3565b6102ab565b005b61010860048036038101906101039190610756565b610388565b604051610117939291906109ea565b60405180910390f35b6101286104d2565b6040516101359190610ba1565b60405180910390f35b61014661065f565b6040516101539190610bde565b60405180910390f35b610164610679565b6040516101719190610792565b60405180910390f35b610194600480360381019061018f9190610c57565b61067f565b6040516101a19190610bde565b60405180910390f35b6101b261069f565b6040516101bf9190610792565b60405180910390f35b600080549050811061020f576040517f08c379a000000000000000000000000000000000000000000000000000000000815260040161020690610cd0565b60405180910390fd5b6000818154811061022357610222610cf0565b5b9060005260206000209060030201600201600081548092919061024590610d4e565b91905055506001600260003373ffffffffffffffffffffffffffffffffffffffff1673ffffffffffffffffffffffffffffffffffffffff16815260200190815260200160002060006101000a81548160ff02191690831515021790555050565b60035481565b600160009054906101000a900473ffffffffffffffffffffffffffffffffffffffff1673ffffffffffffffffffffffffffffffffffffffff163373ffffffffffffffffffffffffffffffffffffffff161461030557600080fd5b600060405180606001604052808481526020018381526020016000815250908060018154018082558091505060019003906000526020600020906003020160009091909190915060008201518160000190816103619190610fa2565b5060208201518160010190816103779190610fa2565b506040820151816002015550505050565b6000818154811061039857600080fd5b90600052602060002090600302016000915090508060000180546103bb90610dc5565b80601f01602080910402602001604051908101604052809291908181526020018280546103e790610dc5565b80156104345780601f1061040957610100808354040283529160200191610434565b820191906000526020600020905b81548152906001019060200180831161041757829003601f168201915b50505050509080600101805461044990610dc5565b80601f016020809104026020016040519081016040528092919081815260200182805461047590610dc5565b80156104c25780601f10610497576101008083540402835291602001916104c2565b820191906000526020600020905b8154815290600101906020018083116104a557829003601f168201915b5050505050908060020154905083565b60606000805480602002602001604051908101604052809291908181526020016000905b82821015610656578382906000526020600020906003020160405180606001604052908160008201805461052990610dc5565b80601f016020809104026020016040519081016040528092919081815260200182805461055590610dc5565b80156105a25780601f10610577576101008083540402835291602001916105a2565b820191906000526020600020905b81548152906001019060200180831161058557829003601f168201915b505050505081526020016001820180546105bb90610dc5565b80601f01602080910402602001604051908101604052809291908181526020018280546105e790610dc5565b80156106345780601f1061060957610100808354040283529160200191610634565b820191906000526020600020905b81548152906001019060200180831161061757829003601f168201915b50505050508152602001600282015481525050815260200190600101906104f6565b50505050905090565b60006003544210158015610674575060045442105b905090565b60045481565b60026020528060005260406000206000915054906101000a900460ff1681565b60006003544210156106e6576040517f08c379a00000000000000000000000000000000000000000000000000000000081526004016106dd906110c0565b60405180910390fd5b60045442106106f85760009050610709565b4260045461070691906110e0565b90505b90565b6000604051905090565b600080fd5b600080fd5b6000819050919050565b61073381610720565b811461073e57600080fd5b50565b6000813590506107508161072a565b92915050565b60006020828403121561076c5761076b610716565b5b600061077a84828501610741565b91505092915050565b61078c81610720565b82525050565b60006020820190506107a76000830184610783565b92915050565b600080fd5b600080fd5b6000601f19601f8301169050919050565b7f4e487b7100000000000000000000000000000000000000000000000000000000600052604160045260246000fd5b610800826107b7565b810181811067ffffffffffffffff8211171561081f5761081e6107c8565b5b80604052505050565b600061083261070c565b905061083e82826107f7565b919050565b600067ffffffffffffffff82111561085e5761085d6107c8565b5b610867826107b7565b9050602081019050919050565b82818337600083830152505050565b600061089661089184610843565b610828565b9050828152602081018484840111156108b2576108b16107b2565b5b6108bd848285610874565b509392505050565b600082601f8301126108da576108d96107ad565b5b81356108ea848260208601610883565b91505092915050565b6000806040838503121561090a57610909610716565b5b600083013567ffffffffffffffff8111156109285761092761071b565b5b610934858286016108c5565b925050602083013567ffffffffffffffff8111156109555761095461071b565b5b610961858286016108c5565b9150509250929050565b600081519050919050565b600082825260208201905092915050565b60005b838110156109a557808201518184015260208101905061098a565b60008484015250505050565b60006109bc8261096b565b6109c68185610976565b93506109d6818560208601610987565b6109df816107b7565b840191505092915050565b60006060820190508181036000830152610a0481866109b1565b90508181036020830152610a1881856109b1565b9050610a276040830184610783565b949350505050565b600081519050919050565b600082825260208201905092915050565b6000819050602082019050919050565b600082825260208201905092915050565b6000610a778261096b565b610a818185610a5b565b9350610a91818560208601610987565b610a9a816107b7565b840191505092915050565b610aae81610720565b82525050565b60006060830160008301518482036000860152610ad18282610a6c565b91505060208301518482036020860152610aeb8282610a6c565b9150506040830151610b006040860182610aa5565b508091505092915050565b6000610b178383610ab4565b905092915050565b6000602082019050919050565b6000610b3782610a2f565b610b418185610a3a565b935083602082028501610b5385610a4b565b8060005b85811015610b8f5784840389528151610b708582610b0b565b9450610b7b83610b1f565b925060208a01995050600181019050610b57565b50829750879550505050505092915050565b60006020820190508181036000830152610bbb8184610b2c565b905092915050565b60008115159050919050565b610bd881610bc3565b82525050565b6000602082019050610bf36000830184610bcf565b92915050565b600073ffffffffffffffffffffffffffffffffffffffff82169050919050565b6000610c2482610bf9565b9050919050565b610c3481610c19565b8114610c3f57600080fd5b50565b600081359050610c5181610c2b565b92915050565b600060208284031215610c6d57610c6c610716565b5b6000610c7b84828501610c42565b91505092915050565b7f496e76616c69642063616e64696461746520696e6465782e0000000000000000600082015250565b6000610cba601883610976565b9150610cc582610c84565b602082019050919050565b60006020820190508181036000830152610ce981610cad565b9050919050565b7f4e487b7100000000000000000000000000000000000000000000000000000000600052603260045260246000fd5b7f4e487b7100000000000000000000000000000000000000000000000000000000600052601160045260246000fd5b6000610d5982610720565b91507fffffffffffffffffffffffffffffffffffffffffffffffffffffffffffffffff8203610d8b57610d8a610d1f565b5b600182019050919050565b7f4e487b7100000000000000000000000000000000000000000000000000000000600052602260045260246000fd5b60006002820490506001821680610ddd57607f821691505b602082108103610df057610def610d96565b5b50919050565b60008190508160005260206000209050919050565b60006020601f8301049050919050565b600082821b905092915050565b600060088302610e587fffffffffffffffffffffffffffffffffffffffffffffffffffffffffffffffff82610e1b565b610e628683610e1b565b95508019841693508086168417925050509392505050565b6000819050919050565b6000610e9f610e9a610e9584610720565b610e7a565b610720565b9050919050565b6000819050919050565b610eb983610e84565b610ecd610ec582610ea6565b848454610e28565b825550505050565b600090565b610ee2610ed5565b610eed818484610eb0565b505050565b5b81811015610f1157610f06600082610eda565b600181019050610ef3565b5050565b601f821115610f5657610f2781610df6565b610f3084610e0b565b81016020851015610f3f578190505b610f53610f4b85610e0b565b830182610ef2565b50505b505050565b600082821c905092915050565b6000610f7960001984600802610f5b565b1980831691505092915050565b6000610f928383610f68565b9150826002028217905092915050565b610fab8261096b565b67ffffffffffffffff811115610fc457610fc36107c8565b5b610fce8254610dc5565b610fd9828285610f15565b600060209050601f83116001811461100c5760008415610ffa578287015190505b6110048582610f86565b86555061106c565b601f19841661101a86610df6565b60005b828110156110425784890151825560018201915060208501945060208101905061101d565b8683101561105f578489015161105b601f891682610f68565b8355505b6001600288020188555050505b505050505050565b7f566f74696e6720686173206e6f742073746172746564207965742e0000000000600082015250565b60006110aa601b83610976565b91506110b582611074565b602082019050919050565b600060208201905081810360008301526110d98161109d565b9050919050565b60006110eb82610720565b91506110f683610720565b925082820390508181111561110e5761110d610d1f565b5b9291505056fea2646970667358221220d95e036108c45796ffc4a319c79fe40bc3471d299fa6a903071a72ef2145c06e64736f6c63430008110033",
  "linkReferences": {},
  "deployedLinkReferences": {}
}